{
  "abi": [
    {
      "inputs": [
        {
          "internalType": "string",
          "name": "_name",
          "type": "string"
        },
        {
          "internalType": "uint256",
          "name": "_age",
          "type": "uint256"
        }
      ],
      "name": "addPatient",
      "outputs": [],
      "stateMutability": "nonpayable",
      "type": "function"
    },
    {
      "inputs": [
        {
          "internalType": "address",
          "name": "_patientAddress",
          "type": "address"
        },
        {
          "internalType": "string",
          "name": "IPFS_Hash",
          "type": "string"
        }
      ],
      "name": "addRecord",
      "outputs": [],
      "stateMutability": "nonpayable",
      "type": "function"
    },
    {
      "inputs": [
        {
          "internalType": "address",
          "name": "_doctorAddress",
          "type": "address"
        }
      ],
      "name": "authorizeDoctor",
      "outputs": [],
      "stateMutability": "nonpayable",
      "type": "function"
    },
    {
      "inputs": [
        {
          "internalType": "address",
          "name": "",
          "type": "address"
        },
        {
          "internalType": "address",
          "name": "",
          "type": "address"
        }
      ],
      "name": "authorizedDoctors",
      "outputs": [
        {
          "internalType": "bool",
          "name": "",
          "type": "bool"
        }
      ],
      "stateMutability": "view",
      "type": "function"
    },
    {
      "inputs": [
        {
          "internalType": "address",
          "name": "_patientAddress",
          "type": "address"
        }
      ],
      "name": "getRecords",
      "outputs": [
        {
          "components": [
            {
              "internalType": "string",
              "name": "IPFS_Hash",
              "type": "string"
            },
            {
              "internalType": "uint256",
              "name": "date",
              "type": "uint256"
            }
          ],
          "internalType": "struct PatientData.MedicalRecord[]",
          "name": "",
          "type": "tuple[]"
        }
      ],
      "stateMutability": "view",
      "type": "function"
    },
    {
      "inputs": [
        {
          "internalType": "address",
          "name": "",
          "type": "address"
        }
      ],
      "name": "patients",
      "outputs": [
        {
          "internalType": "string",
          "name": "name",
          "type": "string"
        },
        {
          "internalType": "uint256",
          "name": "age",
          "type": "uint256"
        },
        {
          "internalType": "string",
          "name": "ailment",
          "type": "string"
        }
      ],
      "stateMutability": "view",
      "type": "function"
    },
    {
      "inputs": [
        {
          "internalType": "address",
          "name": "_doctorAddress",
          "type": "address"
        }
      ],
      "name": "revokeDoctorAuthorization",
      "outputs": [],
      "stateMutability": "nonpayable",
      "type": "function"
    }
  ],
  "devdoc": {
    "kind": "dev",
    "methods": {},
    "version": 1
  },
  "evm": {
    "assembly": "    /* \"PatientData.sol\":62:1446  contract PatientData{... */\n  mstore(0x40, 0x80)\n  callvalue\n  dup1\n  iszero\n  tag_1\n  jumpi\n  0x00\n  dup1\n  revert\ntag_1:\n  pop\n  dataSize(sub_0)\n  dup1\n  dataOffset(sub_0)\n  0x00\n  codecopy\n  0x00\n  return\nstop\n\nsub_0: assembly {\n        /* \"PatientData.sol\":62:1446  contract PatientData{... */\n      mstore(0x40, 0x80)\n      callvalue\n      dup1\n      iszero\n      tag_1\n      jumpi\n      0x00\n      dup1\n      revert\n    tag_1:\n      pop\n      jumpi(tag_2, lt(calldatasize, 0x04))\n      shr(0xe0, calldataload(0x00))\n      dup1\n      0x58c9202c\n      gt\n      tag_10\n      jumpi\n      dup1\n      0x58c9202c\n      eq\n      tag_6\n      jumpi\n      dup1\n      0x66858ec8\n      eq\n      tag_7\n      jumpi\n      dup1\n      0xa0076e84\n      eq\n      tag_8\n      jumpi\n      dup1\n      0xa5b7d984\n      eq\n      tag_9\n      jumpi\n      jump(tag_2)\n    tag_10:\n      dup1\n      0x0869cfbc\n      eq\n      tag_3\n      jumpi\n      dup1\n      0x1cd5c6e9\n      eq\n      tag_4\n      jumpi\n      dup1\n      0x2b95c5fa\n      eq\n      tag_5\n      jumpi\n    tag_2:\n      0x00\n      dup1\n      revert\n        /* \"PatientData.sol\":258:301  mapping(address => Patient) public patients */\n    tag_3:\n      tag_11\n      0x04\n      dup1\n      calldatasize\n      sub\n      dup2\n      add\n      swap1\n      tag_12\n      swap2\n      swap1\n      tag_13\n      jump\t// in\n    tag_12:\n      tag_14\n      jump\t// in\n    tag_11:\n      mload(0x40)\n      tag_15\n      swap4\n      swap3\n      swap2\n      swap1\n      tag_16\n      jump\t// in\n    tag_15:\n      mload(0x40)\n      dup1\n      swap2\n      sub\n      swap1\n      return\n        /* \"PatientData.sol\":365:434  mapping(address => mapping(address => bool)) public authorizedDoctors */\n    tag_4:\n      tag_17\n      0x04\n      dup1\n      calldatasize\n      sub\n      dup2\n      add\n      swap1\n      tag_18\n      swap2\n      swap1\n      tag_19\n      jump\t// in\n    tag_18:\n      tag_20\n      jump\t// in\n    tag_17:\n      mload(0x40)\n      tag_21\n      swap2\n      swap1\n      tag_22\n      jump\t// in\n    tag_21:\n      mload(0x40)\n      dup1\n      swap2\n      sub\n      swap1\n      return\n        /* \"PatientData.sol\":732:868  function revokeDoctorAuthorization(address _doctorAddress) public {... */\n    tag_5:\n      tag_23\n      0x04\n      dup1\n      calldatasize\n      sub\n      dup2\n      add\n      swap1\n      tag_24\n      swap2\n      swap1\n      tag_13\n      jump\t// in\n    tag_24:\n      tag_25\n      jump\t// in\n    tag_23:\n      stop\n        /* \"PatientData.sol\":601:726  function authorizeDoctor(address _doctorAddress) public {... */\n    tag_6:\n      tag_26\n      0x04\n      dup1\n      calldatasize\n      sub\n      dup2\n      add\n      swap1\n      tag_27\n      swap2\n      swap1\n      tag_13\n      jump\t// in\n    tag_27:\n      tag_28\n      jump\t// in\n    tag_26:\n      stop\n        /* \"PatientData.sol\":874:1147  function addRecord(address _patientAddress, string memory IPFS_Hash) public {... */\n    tag_7:\n      tag_29\n      0x04\n      dup1\n      calldatasize\n      sub\n      dup2\n      add\n      swap1\n      tag_30\n      swap2\n      swap1\n      tag_31\n      jump\t// in\n    tag_30:\n      tag_32\n      jump\t// in\n    tag_29:\n      stop\n        /* \"PatientData.sol\":1153:1444  function getRecords(address _patientAddress) public view returns (MedicalRecord[] memory) {... */\n    tag_8:\n      tag_33\n      0x04\n      dup1\n      calldatasize\n      sub\n      dup2\n      add\n      swap1\n      tag_34\n      swap2\n      swap1\n      tag_13\n      jump\t// in\n    tag_34:\n      tag_35\n      jump\t// in\n    tag_33:\n      mload(0x40)\n      tag_36\n      swap2\n      swap1\n      tag_37\n      jump\t// in\n    tag_36:\n      mload(0x40)\n      dup1\n      swap2\n      sub\n      swap1\n      return\n        /* \"PatientData.sol\":441:591  function addPatient(string memory _name, uint _age) public {... */\n    tag_9:\n      tag_38\n      0x04\n      dup1\n      calldatasize\n      sub\n      dup2\n      add\n      swap1\n      tag_39\n      swap2\n      swap1\n      tag_40\n      jump\t// in\n    tag_39:\n      tag_41\n      jump\t// in\n    tag_38:\n      stop\n        /* \"PatientData.sol\":258:301  mapping(address => Patient) public patients */\n    tag_14:\n      mstore(0x20, 0x00)\n      dup1\n      0x00\n      mstore\n      keccak256(0x00, 0x40)\n      0x00\n      swap2\n      pop\n      swap1\n      pop\n      dup1\n      0x00\n      add\n      dup1\n      sload\n      tag_42\n      swap1\n      tag_43\n      jump\t// in\n    tag_42:\n      dup1\n      0x1f\n      add\n      0x20\n      dup1\n      swap2\n      div\n      mul\n      0x20\n      add\n      mload(0x40)\n      swap1\n      dup2\n      add\n      0x40\n      mstore\n      dup1\n      swap3\n      swap2\n      swap1\n      dup2\n      dup2\n      mstore\n      0x20\n      add\n      dup3\n      dup1\n      sload\n      tag_44\n      swap1\n      tag_43\n      jump\t// in\n    tag_44:\n      dup1\n      iszero\n      tag_45\n      jumpi\n      dup1\n      0x1f\n      lt\n      tag_46\n      jumpi\n      0x0100\n      dup1\n      dup4\n      sload\n      div\n      mul\n      dup4\n      mstore\n      swap2\n      0x20\n      add\n      swap2\n      jump(tag_45)\n    tag_46:\n      dup3\n      add\n      swap2\n      swap1\n      0x00\n      mstore\n      keccak256(0x00, 0x20)\n      swap1\n    tag_47:\n      dup2\n      sload\n      dup2\n      mstore\n      swap1\n      0x01\n      add\n      swap1\n      0x20\n      add\n      dup1\n      dup4\n      gt\n      tag_47\n      jumpi\n      dup3\n      swap1\n      sub\n      0x1f\n      and\n      dup3\n      add\n      swap2\n    tag_45:\n      pop\n      pop\n      pop\n      pop\n      pop\n      swap1\n      dup1\n      0x01\n      add\n      sload\n      swap1\n      dup1\n      0x02\n      add\n      dup1\n      sload\n      tag_48\n      swap1\n      tag_43\n      jump\t// in\n    tag_48:\n      dup1\n      0x1f\n      add\n      0x20\n      dup1\n      swap2\n      div\n      mul\n      0x20\n      add\n      mload(0x40)\n      swap1\n      dup2\n      add\n      0x40\n      mstore\n      dup1\n      swap3\n      swap2\n      swap1\n      dup2\n      dup2\n      mstore\n      0x20\n      add\n      dup3\n      dup1\n      sload\n      tag_49\n      swap1\n      tag_43\n      jump\t// in\n    tag_49:\n      dup1\n      iszero\n      tag_50\n      jumpi\n      dup1\n      0x1f\n      lt\n      tag_51\n      jumpi\n      0x0100\n      dup1\n      dup4\n      sload\n      div\n      mul\n      dup4\n      mstore\n      swap2\n      0x20\n      add\n      swap2\n      jump(tag_50)\n    tag_51:\n      dup3\n      add\n      swap2\n      swap1\n      0x00\n      mstore\n      keccak256(0x00, 0x20)\n      swap1\n    tag_52:\n      dup2\n      sload\n      dup2\n      mstore\n      swap1\n      0x01\n      add\n      swap1\n      0x20\n      add\n      dup1\n      dup4\n      gt\n      tag_52\n      jumpi\n      dup3\n      swap1\n      sub\n      0x1f\n      and\n      dup3\n      add\n      swap2\n    tag_50:\n      pop\n      pop\n      pop\n      pop\n      pop\n      swap1\n      pop\n      dup4\n      jump\t// out\n        /* \"PatientData.sol\":365:434  mapping(address => mapping(address => bool)) public authorizedDoctors */\n    tag_20:\n      mstore(0x20, 0x02)\n      dup2\n      0x00\n      mstore\n      mstore(0x20, keccak256(0x00, 0x40))\n      dup1\n      0x00\n      mstore\n      keccak256(0x00, 0x40)\n      0x00\n      swap2\n      pop\n      swap2\n      pop\n      swap1\n      sload\n      swap1\n      0x0100\n      exp\n      swap1\n      div\n      0xff\n      and\n      dup2\n      jump\t// out\n        /* \"PatientData.sol\":732:868  function revokeDoctorAuthorization(address _doctorAddress) public {... */\n    tag_25:\n        /* \"PatientData.sol\":856:861  false */\n      0x00\n        /* \"PatientData.sol\":808:825  authorizedDoctors */\n      0x02\n        /* \"PatientData.sol\":808:837  authorizedDoctors[msg.sender] */\n      0x00\n        /* \"PatientData.sol\":826:836  msg.sender */\n      caller\n        /* \"PatientData.sol\":808:837  authorizedDoctors[msg.sender] */\n      0xffffffffffffffffffffffffffffffffffffffff\n      and\n      0xffffffffffffffffffffffffffffffffffffffff\n      and\n      dup2\n      mstore\n      0x20\n      add\n      swap1\n      dup2\n      mstore\n      0x20\n      add\n      0x00\n      keccak256\n        /* \"PatientData.sol\":808:853  authorizedDoctors[msg.sender][_doctorAddress] */\n      0x00\n        /* \"PatientData.sol\":838:852  _doctorAddress */\n      dup4\n        /* \"PatientData.sol\":808:853  authorizedDoctors[msg.sender][_doctorAddress] */\n      0xffffffffffffffffffffffffffffffffffffffff\n      and\n      0xffffffffffffffffffffffffffffffffffffffff\n      and\n      dup2\n      mstore\n      0x20\n      add\n      swap1\n      dup2\n      mstore\n      0x20\n      add\n      0x00\n      keccak256\n      0x00\n        /* \"PatientData.sol\":808:861  authorizedDoctors[msg.sender][_doctorAddress] = false */\n      0x0100\n      exp\n      dup2\n      sload\n      dup2\n      0xff\n      mul\n      not\n      and\n      swap1\n      dup4\n      iszero\n      iszero\n      mul\n      or\n      swap1\n      sstore\n      pop\n        /* \"PatientData.sol\":732:868  function revokeDoctorAuthorization(address _doctorAddress) public {... */\n      pop\n      jump\t// out\n        /* \"PatientData.sol\":601:726  function authorizeDoctor(address _doctorAddress) public {... */\n    tag_28:\n        /* \"PatientData.sol\":715:719  true */\n      0x01\n        /* \"PatientData.sol\":667:684  authorizedDoctors */\n      0x02\n        /* \"PatientData.sol\":667:696  authorizedDoctors[msg.sender] */\n      0x00\n        /* \"PatientData.sol\":685:695  msg.sender */\n      caller\n        /* \"PatientData.sol\":667:696  authorizedDoctors[msg.sender] */\n      0xffffffffffffffffffffffffffffffffffffffff\n      and\n      0xffffffffffffffffffffffffffffffffffffffff\n      and\n      dup2\n      mstore\n      0x20\n      add\n      swap1\n      dup2\n      mstore\n      0x20\n      add\n      0x00\n      keccak256\n        /* \"PatientData.sol\":667:712  authorizedDoctors[msg.sender][_doctorAddress] */\n      0x00\n        /* \"PatientData.sol\":697:711  _doctorAddress */\n      dup4\n        /* \"PatientData.sol\":667:712  authorizedDoctors[msg.sender][_doctorAddress] */\n      0xffffffffffffffffffffffffffffffffffffffff\n      and\n      0xffffffffffffffffffffffffffffffffffffffff\n      and\n      dup2\n      mstore\n      0x20\n      add\n      swap1\n      dup2\n      mstore\n      0x20\n      add\n      0x00\n      keccak256\n      0x00\n        /* \"PatientData.sol\":667:719  authorizedDoctors[msg.sender][_doctorAddress] = true */\n      0x0100\n      exp\n      dup2\n      sload\n      dup2\n      0xff\n      mul\n      not\n      and\n      swap1\n      dup4\n      iszero\n      iszero\n      mul\n      or\n      swap1\n      sstore\n      pop\n        /* \"PatientData.sol\":601:726  function authorizeDoctor(address _doctorAddress) public {... */\n      pop\n      jump\t// out\n        /* \"PatientData.sol\":874:1147  function addRecord(address _patientAddress, string memory IPFS_Hash) public {... */\n    tag_32:\n        /* \"PatientData.sol\":968:985  authorizedDoctors */\n      0x02\n        /* \"PatientData.sol\":968:1002  authorizedDoctors[_patientAddress] */\n      0x00\n        /* \"PatientData.sol\":986:1001  _patientAddress */\n      dup4\n        /* \"PatientData.sol\":968:1002  authorizedDoctors[_patientAddress] */\n      0xffffffffffffffffffffffffffffffffffffffff\n      and\n      0xffffffffffffffffffffffffffffffffffffffff\n      and\n      dup2\n      mstore\n      0x20\n      add\n      swap1\n      dup2\n      mstore\n      0x20\n      add\n      0x00\n      keccak256\n        /* \"PatientData.sol\":968:1014  authorizedDoctors[_patientAddress][msg.sender] */\n      0x00\n        /* \"PatientData.sol\":1003:1013  msg.sender */\n      caller\n        /* \"PatientData.sol\":968:1014  authorizedDoctors[_patientAddress][msg.sender] */\n      0xffffffffffffffffffffffffffffffffffffffff\n      and\n      0xffffffffffffffffffffffffffffffffffffffff\n      and\n      dup2\n      mstore\n      0x20\n      add\n      swap1\n      dup2\n      mstore\n      0x20\n      add\n      0x00\n      keccak256\n      0x00\n      swap1\n      sload\n      swap1\n      0x0100\n      exp\n      swap1\n      div\n      0xff\n      and\n        /* \"PatientData.sol\":960:1058  require(authorizedDoctors[_patientAddress][msg.sender], \"Only authorized doctors can add records\") */\n      tag_56\n      jumpi\n      mload(0x40)\n      0x08c379a000000000000000000000000000000000000000000000000000000000\n      dup2\n      mstore\n      0x04\n      add\n      tag_57\n      swap1\n      tag_58\n      jump\t// in\n    tag_57:\n      mload(0x40)\n      dup1\n      swap2\n      sub\n      swap1\n      revert\n    tag_56:\n        /* \"PatientData.sol\":1068:1075  records */\n      0x01\n        /* \"PatientData.sol\":1068:1092  records[_patientAddress] */\n      0x00\n        /* \"PatientData.sol\":1076:1091  _patientAddress */\n      dup4\n        /* \"PatientData.sol\":1068:1092  records[_patientAddress] */\n      0xffffffffffffffffffffffffffffffffffffffff\n      and\n      0xffffffffffffffffffffffffffffffffffffffff\n      and\n      dup2\n      mstore\n      0x20\n      add\n      swap1\n      dup2\n      mstore\n      0x20\n      add\n      0x00\n      keccak256\n        /* \"PatientData.sol\":1098:1139  MedicalRecord(IPFS_Hash, block.timestamp) */\n      mload(0x40)\n      dup1\n      0x40\n      add\n      0x40\n      mstore\n      dup1\n        /* \"PatientData.sol\":1112:1121  IPFS_Hash */\n      dup4\n        /* \"PatientData.sol\":1098:1139  MedicalRecord(IPFS_Hash, block.timestamp) */\n      dup2\n      mstore\n      0x20\n      add\n        /* \"PatientData.sol\":1123:1138  block.timestamp */\n      timestamp\n        /* \"PatientData.sol\":1098:1139  MedicalRecord(IPFS_Hash, block.timestamp) */\n      dup2\n      mstore\n      pop\n        /* \"PatientData.sol\":1068:1140  records[_patientAddress].push(MedicalRecord(IPFS_Hash, block.timestamp)) */\n      swap1\n      dup1\n      0x01\n      dup2\n      sload\n      add\n      dup1\n      dup3\n      sstore\n      dup1\n      swap2\n      pop\n      pop\n      0x01\n      swap1\n      sub\n      swap1\n      0x00\n      mstore\n      keccak256(0x00, 0x20)\n      swap1\n      0x02\n      mul\n      add\n      0x00\n      swap1\n      swap2\n      swap1\n      swap2\n      swap1\n      swap2\n      pop\n      0x00\n      dup3\n      add\n      mload\n      dup2\n      0x00\n      add\n      swap1\n      dup1\n      mload\n      swap1\n      0x20\n      add\n      swap1\n      tag_60\n      swap3\n      swap2\n      swap1\n      tag_61\n      jump\t// in\n    tag_60:\n      pop\n      0x20\n      dup3\n      add\n      mload\n      dup2\n      0x01\n      add\n      sstore\n      pop\n      pop\n        /* \"PatientData.sol\":874:1147  function addRecord(address _patientAddress, string memory IPFS_Hash) public {... */\n      pop\n      pop\n      jump\t// out\n        /* \"PatientData.sol\":1153:1444  function getRecords(address _patientAddress) public view returns (MedicalRecord[] memory) {... */\n    tag_35:\n        /* \"PatientData.sol\":1219:1241  MedicalRecord[] memory */\n      0x60\n        /* \"PatientData.sol\":1275:1290  _patientAddress */\n      dup2\n        /* \"PatientData.sol\":1261:1290  msg.sender == _patientAddress */\n      0xffffffffffffffffffffffffffffffffffffffff\n      and\n        /* \"PatientData.sol\":1261:1271  msg.sender */\n      caller\n        /* \"PatientData.sol\":1261:1290  msg.sender == _patientAddress */\n      0xffffffffffffffffffffffffffffffffffffffff\n      and\n      eq\n        /* \"PatientData.sol\":1261:1340  msg.sender == _patientAddress || authorizedDoctors[_patientAddress][msg.sender] */\n      dup1\n      tag_63\n      jumpi\n      pop\n        /* \"PatientData.sol\":1294:1311  authorizedDoctors */\n      0x02\n        /* \"PatientData.sol\":1294:1328  authorizedDoctors[_patientAddress] */\n      0x00\n        /* \"PatientData.sol\":1312:1327  _patientAddress */\n      dup4\n        /* \"PatientData.sol\":1294:1328  authorizedDoctors[_patientAddress] */\n      0xffffffffffffffffffffffffffffffffffffffff\n      and\n      0xffffffffffffffffffffffffffffffffffffffff\n      and\n      dup2\n      mstore\n      0x20\n      add\n      swap1\n      dup2\n      mstore\n      0x20\n      add\n      0x00\n      keccak256\n        /* \"PatientData.sol\":1294:1340  authorizedDoctors[_patientAddress][msg.sender] */\n      0x00\n        /* \"PatientData.sol\":1329:1339  msg.sender */\n      caller\n        /* \"PatientData.sol\":1294:1340  authorizedDoctors[_patientAddress][msg.sender] */\n      0xffffffffffffffffffffffffffffffffffffffff\n      and\n      0xffffffffffffffffffffffffffffffffffffffff\n      and\n      dup2\n      mstore\n      0x20\n      add\n      swap1\n      dup2\n      mstore\n      0x20\n      add\n      0x00\n      keccak256\n      0x00\n      swap1\n      sload\n      swap1\n      0x0100\n      exp\n      swap1\n      div\n      0xff\n      and\n        /* \"PatientData.sol\":1261:1340  msg.sender == _patientAddress || authorizedDoctors[_patientAddress][msg.sender] */\n    tag_63:\n        /* \"PatientData.sol\":1253:1396  require(msg.sender == _patientAddress || authorizedDoctors[_patientAddress][msg.sender], \"Only patient or authorized doctors can view records\") */\n      tag_64\n      jumpi\n      mload(0x40)\n      0x08c379a000000000000000000000000000000000000000000000000000000000\n      dup2\n      mstore\n      0x04\n      add\n      tag_65\n      swap1\n      tag_66\n      jump\t// in\n    tag_65:\n      mload(0x40)\n      dup1\n      swap2\n      sub\n      swap1\n      revert\n    tag_64:\n        /* \"PatientData.sol\":1413:1420  records */\n      0x01\n        /* \"PatientData.sol\":1413:1437  records[_patientAddress] */\n      0x00\n        /* \"PatientData.sol\":1421:1436  _patientAddress */\n      dup4\n        /* \"PatientData.sol\":1413:1437  records[_patientAddress] */\n      0xffffffffffffffffffffffffffffffffffffffff\n      and\n      0xffffffffffffffffffffffffffffffffffffffff\n      and\n      dup2\n      mstore\n      0x20\n      add\n      swap1\n      dup2\n      mstore\n      0x20\n      add\n      0x00\n      keccak256\n        /* \"PatientData.sol\":1406:1437  return records[_patientAddress] */\n      dup1\n      sload\n      dup1\n      0x20\n      mul\n      0x20\n      add\n      mload(0x40)\n      swap1\n      dup2\n      add\n      0x40\n      mstore\n      dup1\n      swap3\n      swap2\n      swap1\n      dup2\n      dup2\n      mstore\n      0x20\n      add\n      0x00\n      swap1\n    tag_67:\n      dup3\n      dup3\n      lt\n      iszero\n      tag_68\n      jumpi\n      dup4\n      dup3\n      swap1\n      0x00\n      mstore\n      keccak256(0x00, 0x20)\n      swap1\n      0x02\n      mul\n      add\n      mload(0x40)\n      dup1\n      0x40\n      add\n      0x40\n      mstore\n      swap1\n      dup2\n      0x00\n      dup3\n      add\n      dup1\n      sload\n      tag_70\n      swap1\n      tag_43\n      jump\t// in\n    tag_70:\n      dup1\n      0x1f\n      add\n      0x20\n      dup1\n      swap2\n      div\n      mul\n      0x20\n      add\n      mload(0x40)\n      swap1\n      dup2\n      add\n      0x40\n      mstore\n      dup1\n      swap3\n      swap2\n      swap1\n      dup2\n      dup2\n      mstore\n      0x20\n      add\n      dup3\n      dup1\n      sload\n      tag_71\n      swap1\n      tag_43\n      jump\t// in\n    tag_71:\n      dup1\n      iszero\n      tag_72\n      jumpi\n      dup1\n      0x1f\n      lt\n      tag_73\n      jumpi\n      0x0100\n      dup1\n      dup4\n      sload\n      div\n      mul\n      dup4\n      mstore\n      swap2\n      0x20\n      add\n      swap2\n      jump(tag_72)\n    tag_73:\n      dup3\n      add\n      swap2\n      swap1\n      0x00\n      mstore\n      keccak256(0x00, 0x20)\n      swap1\n    tag_74:\n      dup2\n      sload\n      dup2\n      mstore\n      swap1\n      0x01\n      add\n      swap1\n      0x20\n      add\n      dup1\n      dup4\n      gt\n      tag_74\n      jumpi\n      dup3\n      swap1\n      sub\n      0x1f\n      and\n      dup3\n      add\n      swap2\n    tag_72:\n      pop\n      pop\n      pop\n      pop\n      pop\n      dup2\n      mstore\n      0x20\n      add\n      0x01\n      dup3\n      add\n      sload\n      dup2\n      mstore\n      pop\n      pop\n      dup2\n      mstore\n      0x20\n      add\n      swap1\n      0x01\n      add\n      swap1\n      jump(tag_67)\n    tag_68:\n      pop\n      pop\n      pop\n      pop\n      swap1\n      pop\n        /* \"PatientData.sol\":1153:1444  function getRecords(address _patientAddress) public view returns (MedicalRecord[] memory) {... */\n      swap2\n      swap1\n      pop\n      jump\t// out\n        /* \"PatientData.sol\":441:591  function addPatient(string memory _name, uint _age) public {... */\n    tag_41:\n        /* \"PatientData.sol\":538:543  _name */\n      dup2\n        /* \"PatientData.sol\":510:518  patients */\n      0x00\n        /* \"PatientData.sol\":510:530  patients[msg.sender] */\n      dup1\n        /* \"PatientData.sol\":519:529  msg.sender */\n      caller\n        /* \"PatientData.sol\":510:530  patients[msg.sender] */\n      0xffffffffffffffffffffffffffffffffffffffff\n      and\n      0xffffffffffffffffffffffffffffffffffffffff\n      and\n      dup2\n      mstore\n      0x20\n      add\n      swap1\n      dup2\n      mstore\n      0x20\n      add\n      0x00\n      keccak256\n        /* \"PatientData.sol\":510:535  patients[msg.sender].name */\n      0x00\n      add\n        /* \"PatientData.sol\":510:543  patients[msg.sender].name = _name */\n      swap1\n      dup1\n      mload\n      swap1\n      0x20\n      add\n      swap1\n      tag_76\n      swap3\n      swap2\n      swap1\n      tag_61\n      jump\t// in\n    tag_76:\n      pop\n        /* \"PatientData.sol\":580:584  _age */\n      dup1\n        /* \"PatientData.sol\":553:561  patients */\n      0x00\n        /* \"PatientData.sol\":553:573  patients[msg.sender] */\n      dup1\n        /* \"PatientData.sol\":562:572  msg.sender */\n      caller\n        /* \"PatientData.sol\":553:573  patients[msg.sender] */\n      0xffffffffffffffffffffffffffffffffffffffff\n      and\n      0xffffffffffffffffffffffffffffffffffffffff\n      and\n      dup2\n      mstore\n      0x20\n      add\n      swap1\n      dup2\n      mstore\n      0x20\n      add\n      0x00\n      keccak256\n        /* \"PatientData.sol\":553:577  patients[msg.sender].age */\n      0x01\n      add\n        /* \"PatientData.sol\":553:584  patients[msg.sender].age = _age */\n      dup2\n      swap1\n      sstore\n      pop\n        /* \"PatientData.sol\":441:591  function addPatient(string memory _name, uint _age) public {... */\n      pop\n      pop\n      jump\t// out\n    tag_61:\n      dup3\n      dup1\n      sload\n      tag_77\n      swap1\n      tag_43\n      jump\t// in\n    tag_77:\n      swap1\n      0x00\n      mstore\n      keccak256(0x00, 0x20)\n      swap1\n      0x1f\n      add\n      0x20\n      swap1\n      div\n      dup2\n      add\n      swap3\n      dup3\n      tag_79\n      jumpi\n      0x00\n      dup6\n      sstore\n      jump(tag_78)\n    tag_79:\n      dup3\n      0x1f\n      lt\n      tag_80\n      jumpi\n      dup1\n      mload\n      not(0xff)\n      and\n      dup4\n      dup1\n      add\n      or\n      dup6\n      sstore\n      jump(tag_78)\n    tag_80:\n      dup3\n      dup1\n      add\n      0x01\n      add\n      dup6\n      sstore\n      dup3\n      iszero\n      tag_78\n      jumpi\n      swap2\n      dup3\n      add\n    tag_81:\n      dup3\n      dup2\n      gt\n      iszero\n      tag_82\n      jumpi\n      dup3\n      mload\n      dup3\n      sstore\n      swap2\n      0x20\n      add\n      swap2\n      swap1\n      0x01\n      add\n      swap1\n      jump(tag_81)\n    tag_82:\n    tag_78:\n      pop\n      swap1\n      pop\n      tag_83\n      swap2\n      swap1\n      tag_84\n      jump\t// in\n    tag_83:\n      pop\n      swap1\n      jump\t// out\n    tag_84:\n    tag_85:\n      dup1\n      dup3\n      gt\n      iszero\n      tag_86\n      jumpi\n      0x00\n      dup2\n      0x00\n      swap1\n      sstore\n      pop\n      0x01\n      add\n      jump(tag_85)\n    tag_86:\n      pop\n      swap1\n      jump\t// out\n        /* \"#utility.yul\":7:82   */\n    tag_87:\n        /* \"#utility.yul\":40:46   */\n      0x00\n        /* \"#utility.yul\":73:75   */\n      0x40\n        /* \"#utility.yul\":67:76   */\n      mload\n        /* \"#utility.yul\":57:76   */\n      swap1\n      pop\n        /* \"#utility.yul\":7:82   */\n      swap1\n      jump\t// out\n        /* \"#utility.yul\":88:205   */\n    tag_88:\n        /* \"#utility.yul\":197:198   */\n      0x00\n        /* \"#utility.yul\":194:195   */\n      dup1\n        /* \"#utility.yul\":187:199   */\n      revert\n        /* \"#utility.yul\":211:328   */\n    tag_89:\n        /* \"#utility.yul\":320:321   */\n      0x00\n        /* \"#utility.yul\":317:318   */\n      dup1\n        /* \"#utility.yul\":310:322   */\n      revert\n        /* \"#utility.yul\":334:460   */\n    tag_90:\n        /* \"#utility.yul\":371:378   */\n      0x00\n        /* \"#utility.yul\":411:453   */\n      0xffffffffffffffffffffffffffffffffffffffff\n        /* \"#utility.yul\":404:409   */\n      dup3\n        /* \"#utility.yul\":400:454   */\n      and\n        /* \"#utility.yul\":389:454   */\n      swap1\n      pop\n        /* \"#utility.yul\":334:460   */\n      swap2\n      swap1\n      pop\n      jump\t// out\n        /* \"#utility.yul\":466:562   */\n    tag_91:\n        /* \"#utility.yul\":503:510   */\n      0x00\n        /* \"#utility.yul\":532:556   */\n      tag_135\n        /* \"#utility.yul\":550:555   */\n      dup3\n        /* \"#utility.yul\":532:556   */\n      tag_90\n      jump\t// in\n    tag_135:\n        /* \"#utility.yul\":521:556   */\n      swap1\n      pop\n        /* \"#utility.yul\":466:562   */\n      swap2\n      swap1\n      pop\n      jump\t// out\n        /* \"#utility.yul\":568:690   */\n    tag_92:\n        /* \"#utility.yul\":641:665   */\n      tag_137\n        /* \"#utility.yul\":659:664   */\n      dup2\n        /* \"#utility.yul\":641:665   */\n      tag_91\n      jump\t// in\n    tag_137:\n        /* \"#utility.yul\":634:639   */\n      dup2\n        /* \"#utility.yul\":631:666   */\n      eq\n        /* \"#utility.yul\":621:684   */\n      tag_138\n      jumpi\n        /* \"#utility.yul\":680:681   */\n      0x00\n        /* \"#utility.yul\":677:678   */\n      dup1\n        /* \"#utility.yul\":670:682   */\n      revert\n        /* \"#utility.yul\":621:684   */\n    tag_138:\n        /* \"#utility.yul\":568:690   */\n      pop\n      jump\t// out\n        /* \"#utility.yul\":696:835   */\n    tag_93:\n        /* \"#utility.yul\":742:747   */\n      0x00\n        /* \"#utility.yul\":780:786   */\n      dup2\n        /* \"#utility.yul\":767:787   */\n      calldataload\n        /* \"#utility.yul\":758:787   */\n      swap1\n      pop\n        /* \"#utility.yul\":796:829   */\n      tag_140\n        /* \"#utility.yul\":823:828   */\n      dup2\n        /* \"#utility.yul\":796:829   */\n      tag_92\n      jump\t// in\n    tag_140:\n        /* \"#utility.yul\":696:835   */\n      swap3\n      swap2\n      pop\n      pop\n      jump\t// out\n        /* \"#utility.yul\":841:1170   */\n    tag_13:\n        /* \"#utility.yul\":900:906   */\n      0x00\n        /* \"#utility.yul\":949:951   */\n      0x20\n        /* \"#utility.yul\":937:946   */\n      dup3\n        /* \"#utility.yul\":928:935   */\n      dup5\n        /* \"#utility.yul\":924:947   */\n      sub\n        /* \"#utility.yul\":920:952   */\n      slt\n        /* \"#utility.yul\":917:1036   */\n      iszero\n      tag_142\n      jumpi\n        /* \"#utility.yul\":955:1034   */\n      tag_143\n      tag_88\n      jump\t// in\n    tag_143:\n        /* \"#utility.yul\":917:1036   */\n    tag_142:\n        /* \"#utility.yul\":1075:1076   */\n      0x00\n        /* \"#utility.yul\":1100:1153   */\n      tag_144\n        /* \"#utility.yul\":1145:1152   */\n      dup5\n        /* \"#utility.yul\":1136:1142   */\n      dup3\n        /* \"#utility.yul\":1125:1134   */\n      dup6\n        /* \"#utility.yul\":1121:1143   */\n      add\n        /* \"#utility.yul\":1100:1153   */\n      tag_93\n      jump\t// in\n    tag_144:\n        /* \"#utility.yul\":1090:1153   */\n      swap2\n      pop\n        /* \"#utility.yul\":1046:1163   */\n      pop\n        /* \"#utility.yul\":841:1170   */\n      swap3\n      swap2\n      pop\n      pop\n      jump\t// out\n        /* \"#utility.yul\":1176:1275   */\n    tag_94:\n        /* \"#utility.yul\":1228:1234   */\n      0x00\n        /* \"#utility.yul\":1262:1267   */\n      dup2\n        /* \"#utility.yul\":1256:1268   */\n      mload\n        /* \"#utility.yul\":1246:1268   */\n      swap1\n      pop\n        /* \"#utility.yul\":1176:1275   */\n      swap2\n      swap1\n      pop\n      jump\t// out\n        /* \"#utility.yul\":1281:1450   */\n    tag_95:\n        /* \"#utility.yul\":1365:1376   */\n      0x00\n        /* \"#utility.yul\":1399:1405   */\n      dup3\n        /* \"#utility.yul\":1394:1397   */\n      dup3\n        /* \"#utility.yul\":1387:1406   */\n      mstore\n        /* \"#utility.yul\":1439:1443   */\n      0x20\n        /* \"#utility.yul\":1434:1437   */\n      dup3\n        /* \"#utility.yul\":1430:1444   */\n      add\n        /* \"#utility.yul\":1415:1444   */\n      swap1\n      pop\n        /* \"#utility.yul\":1281:1450   */\n      swap3\n      swap2\n      pop\n      pop\n      jump\t// out\n        /* \"#utility.yul\":1456:1763   */\n    tag_96:\n        /* \"#utility.yul\":1524:1525   */\n      0x00\n        /* \"#utility.yul\":1534:1647   */\n    tag_148:\n        /* \"#utility.yul\":1548:1554   */\n      dup4\n        /* \"#utility.yul\":1545:1546   */\n      dup2\n        /* \"#utility.yul\":1542:1555   */\n      lt\n        /* \"#utility.yul\":1534:1647   */\n      iszero\n      tag_150\n      jumpi\n        /* \"#utility.yul\":1633:1634   */\n      dup1\n        /* \"#utility.yul\":1628:1631   */\n      dup3\n        /* \"#utility.yul\":1624:1635   */\n      add\n        /* \"#utility.yul\":1618:1636   */\n      mload\n        /* \"#utility.yul\":1614:1615   */\n      dup2\n        /* \"#utility.yul\":1609:1612   */\n      dup5\n        /* \"#utility.yul\":1605:1616   */\n      add\n        /* \"#utility.yul\":1598:1637   */\n      mstore\n        /* \"#utility.yul\":1570:1572   */\n      0x20\n        /* \"#utility.yul\":1567:1568   */\n      dup2\n        /* \"#utility.yul\":1563:1573   */\n      add\n        /* \"#utility.yul\":1558:1573   */\n      swap1\n      pop\n        /* \"#utility.yul\":1534:1647   */\n      jump(tag_148)\n    tag_150:\n        /* \"#utility.yul\":1665:1671   */\n      dup4\n        /* \"#utility.yul\":1662:1663   */\n      dup2\n        /* \"#utility.yul\":1659:1672   */\n      gt\n        /* \"#utility.yul\":1656:1757   */\n      iszero\n      tag_151\n      jumpi\n        /* \"#utility.yul\":1745:1746   */\n      0x00\n        /* \"#utility.yul\":1736:1742   */\n      dup5\n        /* \"#utility.yul\":1731:1734   */\n      dup5\n        /* \"#utility.yul\":1727:1743   */\n      add\n        /* \"#utility.yul\":1720:1747   */\n      mstore\n        /* \"#utility.yul\":1656:1757   */\n    tag_151:\n        /* \"#utility.yul\":1505:1763   */\n      pop\n        /* \"#utility.yul\":1456:1763   */\n      pop\n      pop\n      pop\n      jump\t// out\n        /* \"#utility.yul\":1769:1871   */\n    tag_97:\n        /* \"#utility.yul\":1810:1816   */\n      0x00\n        /* \"#utility.yul\":1861:1863   */\n      0x1f\n        /* \"#utility.yul\":1857:1864   */\n      not\n        /* \"#utility.yul\":1852:1854   */\n      0x1f\n        /* \"#utility.yul\":1845:1850   */\n      dup4\n        /* \"#utility.yul\":1841:1855   */\n      add\n        /* \"#utility.yul\":1837:1865   */\n      and\n        /* \"#utility.yul\":1827:1865   */\n      swap1\n      pop\n        /* \"#utility.yul\":1769:1871   */\n      swap2\n      swap1\n      pop\n      jump\t// out\n        /* \"#utility.yul\":1877:2241   */\n    tag_98:\n        /* \"#utility.yul\":1965:1968   */\n      0x00\n        /* \"#utility.yul\":1993:2032   */\n      tag_154\n        /* \"#utility.yul\":2026:2031   */\n      dup3\n        /* \"#utility.yul\":1993:2032   */\n      tag_94\n      jump\t// in\n    tag_154:\n        /* \"#utility.yul\":2048:2119   */\n      tag_155\n        /* \"#utility.yul\":2112:2118   */\n      dup2\n        /* \"#utility.yul\":2107:2110   */\n      dup6\n        /* \"#utility.yul\":2048:2119   */\n      tag_95\n      jump\t// in\n    tag_155:\n        /* \"#utility.yul\":2041:2119   */\n      swap4\n      pop\n        /* \"#utility.yul\":2128:2180   */\n      tag_156\n        /* \"#utility.yul\":2173:2179   */\n      dup2\n        /* \"#utility.yul\":2168:2171   */\n      dup6\n        /* \"#utility.yul\":2161:2165   */\n      0x20\n        /* \"#utility.yul\":2154:2159   */\n      dup7\n        /* \"#utility.yul\":2150:2166   */\n      add\n        /* \"#utility.yul\":2128:2180   */\n      tag_96\n      jump\t// in\n    tag_156:\n        /* \"#utility.yul\":2205:2234   */\n      tag_157\n        /* \"#utility.yul\":2227:2233   */\n      dup2\n        /* \"#utility.yul\":2205:2234   */\n      tag_97\n      jump\t// in\n    tag_157:\n        /* \"#utility.yul\":2200:2203   */\n      dup5\n        /* \"#utility.yul\":2196:2235   */\n      add\n        /* \"#utility.yul\":2189:2235   */\n      swap2\n      pop\n        /* \"#utility.yul\":1969:2241   */\n      pop\n        /* \"#utility.yul\":1877:2241   */\n      swap3\n      swap2\n      pop\n      pop\n      jump\t// out\n        /* \"#utility.yul\":2247:2324   */\n    tag_99:\n        /* \"#utility.yul\":2284:2291   */\n      0x00\n        /* \"#utility.yul\":2313:2318   */\n      dup2\n        /* \"#utility.yul\":2302:2318   */\n      swap1\n      pop\n        /* \"#utility.yul\":2247:2324   */\n      swap2\n      swap1\n      pop\n      jump\t// out\n        /* \"#utility.yul\":2330:2448   */\n    tag_100:\n        /* \"#utility.yul\":2417:2441   */\n      tag_160\n        /* \"#utility.yul\":2435:2440   */\n      dup2\n        /* \"#utility.yul\":2417:2441   */\n      tag_99\n      jump\t// in\n    tag_160:\n        /* \"#utility.yul\":2412:2415   */\n      dup3\n        /* \"#utility.yul\":2405:2442   */\n      mstore\n        /* \"#utility.yul\":2330:2448   */\n      pop\n      pop\n      jump\t// out\n        /* \"#utility.yul\":2454:3078   */\n    tag_16:\n        /* \"#utility.yul\":2643:2647   */\n      0x00\n        /* \"#utility.yul\":2681:2683   */\n      0x60\n        /* \"#utility.yul\":2670:2679   */\n      dup3\n        /* \"#utility.yul\":2666:2684   */\n      add\n        /* \"#utility.yul\":2658:2684   */\n      swap1\n      pop\n        /* \"#utility.yul\":2730:2739   */\n      dup2\n        /* \"#utility.yul\":2724:2728   */\n      dup2\n        /* \"#utility.yul\":2720:2740   */\n      sub\n        /* \"#utility.yul\":2716:2717   */\n      0x00\n        /* \"#utility.yul\":2705:2714   */\n      dup4\n        /* \"#utility.yul\":2701:2718   */\n      add\n        /* \"#utility.yul\":2694:2741   */\n      mstore\n        /* \"#utility.yul\":2758:2836   */\n      tag_162\n        /* \"#utility.yul\":2831:2835   */\n      dup2\n        /* \"#utility.yul\":2822:2828   */\n      dup7\n        /* \"#utility.yul\":2758:2836   */\n      tag_98\n      jump\t// in\n    tag_162:\n        /* \"#utility.yul\":2750:2836   */\n      swap1\n      pop\n        /* \"#utility.yul\":2846:2918   */\n      tag_163\n        /* \"#utility.yul\":2914:2916   */\n      0x20\n        /* \"#utility.yul\":2903:2912   */\n      dup4\n        /* \"#utility.yul\":2899:2917   */\n      add\n        /* \"#utility.yul\":2890:2896   */\n      dup6\n        /* \"#utility.yul\":2846:2918   */\n      tag_100\n      jump\t// in\n    tag_163:\n        /* \"#utility.yul\":2965:2974   */\n      dup2\n        /* \"#utility.yul\":2959:2963   */\n      dup2\n        /* \"#utility.yul\":2955:2975   */\n      sub\n        /* \"#utility.yul\":2950:2952   */\n      0x40\n        /* \"#utility.yul\":2939:2948   */\n      dup4\n        /* \"#utility.yul\":2935:2953   */\n      add\n        /* \"#utility.yul\":2928:2976   */\n      mstore\n        /* \"#utility.yul\":2993:3071   */\n      tag_164\n        /* \"#utility.yul\":3066:3070   */\n      dup2\n        /* \"#utility.yul\":3057:3063   */\n      dup5\n        /* \"#utility.yul\":2993:3071   */\n      tag_98\n      jump\t// in\n    tag_164:\n        /* \"#utility.yul\":2985:3071   */\n      swap1\n      pop\n        /* \"#utility.yul\":2454:3078   */\n      swap5\n      swap4\n      pop\n      pop\n      pop\n      pop\n      jump\t// out\n        /* \"#utility.yul\":3084:3558   */\n    tag_19:\n        /* \"#utility.yul\":3152:3158   */\n      0x00\n        /* \"#utility.yul\":3160:3166   */\n      dup1\n        /* \"#utility.yul\":3209:3211   */\n      0x40\n        /* \"#utility.yul\":3197:3206   */\n      dup4\n        /* \"#utility.yul\":3188:3195   */\n      dup6\n        /* \"#utility.yul\":3184:3207   */\n      sub\n        /* \"#utility.yul\":3180:3212   */\n      slt\n        /* \"#utility.yul\":3177:3296   */\n      iszero\n      tag_166\n      jumpi\n        /* \"#utility.yul\":3215:3294   */\n      tag_167\n      tag_88\n      jump\t// in\n    tag_167:\n        /* \"#utility.yul\":3177:3296   */\n    tag_166:\n        /* \"#utility.yul\":3335:3336   */\n      0x00\n        /* \"#utility.yul\":3360:3413   */\n      tag_168\n        /* \"#utility.yul\":3405:3412   */\n      dup6\n        /* \"#utility.yul\":3396:3402   */\n      dup3\n        /* \"#utility.yul\":3385:3394   */\n      dup7\n        /* \"#utility.yul\":3381:3403   */\n      add\n        /* \"#utility.yul\":3360:3413   */\n      tag_93\n      jump\t// in\n    tag_168:\n        /* \"#utility.yul\":3350:3413   */\n      swap3\n      pop\n        /* \"#utility.yul\":3306:3423   */\n      pop\n        /* \"#utility.yul\":3462:3464   */\n      0x20\n        /* \"#utility.yul\":3488:3541   */\n      tag_169\n        /* \"#utility.yul\":3533:3540   */\n      dup6\n        /* \"#utility.yul\":3524:3530   */\n      dup3\n        /* \"#utility.yul\":3513:3522   */\n      dup7\n        /* \"#utility.yul\":3509:3531   */\n      add\n        /* \"#utility.yul\":3488:3541   */\n      tag_93\n      jump\t// in\n    tag_169:\n        /* \"#utility.yul\":3478:3541   */\n      swap2\n      pop\n        /* \"#utility.yul\":3433:3551   */\n      pop\n        /* \"#utility.yul\":3084:3558   */\n      swap3\n      pop\n      swap3\n      swap1\n      pop\n      jump\t// out\n        /* \"#utility.yul\":3564:3654   */\n    tag_101:\n        /* \"#utility.yul\":3598:3605   */\n      0x00\n        /* \"#utility.yul\":3641:3646   */\n      dup2\n        /* \"#utility.yul\":3634:3647   */\n      iszero\n        /* \"#utility.yul\":3627:3648   */\n      iszero\n        /* \"#utility.yul\":3616:3648   */\n      swap1\n      pop\n        /* \"#utility.yul\":3564:3654   */\n      swap2\n      swap1\n      pop\n      jump\t// out\n        /* \"#utility.yul\":3660:3769   */\n    tag_102:\n        /* \"#utility.yul\":3741:3762   */\n      tag_172\n        /* \"#utility.yul\":3756:3761   */\n      dup2\n        /* \"#utility.yul\":3741:3762   */\n      tag_101\n      jump\t// in\n    tag_172:\n        /* \"#utility.yul\":3736:3739   */\n      dup3\n        /* \"#utility.yul\":3729:3763   */\n      mstore\n        /* \"#utility.yul\":3660:3769   */\n      pop\n      pop\n      jump\t// out\n        /* \"#utility.yul\":3775:3985   */\n    tag_22:\n        /* \"#utility.yul\":3862:3866   */\n      0x00\n        /* \"#utility.yul\":3900:3902   */\n      0x20\n        /* \"#utility.yul\":3889:3898   */\n      dup3\n        /* \"#utility.yul\":3885:3903   */\n      add\n        /* \"#utility.yul\":3877:3903   */\n      swap1\n      pop\n        /* \"#utility.yul\":3913:3978   */\n      tag_174\n        /* \"#utility.yul\":3975:3976   */\n      0x00\n        /* \"#utility.yul\":3964:3973   */\n      dup4\n        /* \"#utility.yul\":3960:3977   */\n      add\n        /* \"#utility.yul\":3951:3957   */\n      dup5\n        /* \"#utility.yul\":3913:3978   */\n      tag_102\n      jump\t// in\n    tag_174:\n        /* \"#utility.yul\":3775:3985   */\n      swap3\n      swap2\n      pop\n      pop\n      jump\t// out\n        /* \"#utility.yul\":3991:4108   */\n    tag_103:\n        /* \"#utility.yul\":4100:4101   */\n      0x00\n        /* \"#utility.yul\":4097:4098   */\n      dup1\n        /* \"#utility.yul\":4090:4102   */\n      revert\n        /* \"#utility.yul\":4114:4231   */\n    tag_104:\n        /* \"#utility.yul\":4223:4224   */\n      0x00\n        /* \"#utility.yul\":4220:4221   */\n      dup1\n        /* \"#utility.yul\":4213:4225   */\n      revert\n        /* \"#utility.yul\":4237:4417   */\n    tag_105:\n        /* \"#utility.yul\":4285:4362   */\n      0x4e487b7100000000000000000000000000000000000000000000000000000000\n        /* \"#utility.yul\":4282:4283   */\n      0x00\n        /* \"#utility.yul\":4275:4363   */\n      mstore\n        /* \"#utility.yul\":4382:4386   */\n      0x41\n        /* \"#utility.yul\":4379:4380   */\n      0x04\n        /* \"#utility.yul\":4372:4387   */\n      mstore\n        /* \"#utility.yul\":4406:4410   */\n      0x24\n        /* \"#utility.yul\":4403:4404   */\n      0x00\n        /* \"#utility.yul\":4396:4411   */\n      revert\n        /* \"#utility.yul\":4423:4704   */\n    tag_106:\n        /* \"#utility.yul\":4506:4533   */\n      tag_179\n        /* \"#utility.yul\":4528:4532   */\n      dup3\n        /* \"#utility.yul\":4506:4533   */\n      tag_97\n      jump\t// in\n    tag_179:\n        /* \"#utility.yul\":4498:4504   */\n      dup2\n        /* \"#utility.yul\":4494:4534   */\n      add\n        /* \"#utility.yul\":4636:4642   */\n      dup2\n        /* \"#utility.yul\":4624:4634   */\n      dup2\n        /* \"#utility.yul\":4621:4643   */\n      lt\n        /* \"#utility.yul\":4600:4618   */\n      0xffffffffffffffff\n        /* \"#utility.yul\":4588:4598   */\n      dup3\n        /* \"#utility.yul\":4585:4619   */\n      gt\n        /* \"#utility.yul\":4582:4644   */\n      or\n        /* \"#utility.yul\":4579:4667   */\n      iszero\n      tag_180\n      jumpi\n        /* \"#utility.yul\":4647:4665   */\n      tag_181\n      tag_105\n      jump\t// in\n    tag_181:\n        /* \"#utility.yul\":4579:4667   */\n    tag_180:\n        /* \"#utility.yul\":4687:4697   */\n      dup1\n        /* \"#utility.yul\":4683:4685   */\n      0x40\n        /* \"#utility.yul\":4676:4698   */\n      mstore\n        /* \"#utility.yul\":4466:4704   */\n      pop\n        /* \"#utility.yul\":4423:4704   */\n      pop\n      pop\n      jump\t// out\n        /* \"#utility.yul\":4710:4839   */\n    tag_107:\n        /* \"#utility.yul\":4744:4750   */\n      0x00\n        /* \"#utility.yul\":4771:4791   */\n      tag_183\n      tag_87\n      jump\t// in\n    tag_183:\n        /* \"#utility.yul\":4761:4791   */\n      swap1\n      pop\n        /* \"#utility.yul\":4800:4833   */\n      tag_184\n        /* \"#utility.yul\":4828:4832   */\n      dup3\n        /* \"#utility.yul\":4820:4826   */\n      dup3\n        /* \"#utility.yul\":4800:4833   */\n      tag_106\n      jump\t// in\n    tag_184:\n        /* \"#utility.yul\":4710:4839   */\n      swap2\n      swap1\n      pop\n      jump\t// out\n        /* \"#utility.yul\":4845:5153   */\n    tag_108:\n        /* \"#utility.yul\":4907:4911   */\n      0x00\n        /* \"#utility.yul\":4997:5015   */\n      0xffffffffffffffff\n        /* \"#utility.yul\":4989:4995   */\n      dup3\n        /* \"#utility.yul\":4986:5016   */\n      gt\n        /* \"#utility.yul\":4983:5039   */\n      iszero\n      tag_186\n      jumpi\n        /* \"#utility.yul\":5019:5037   */\n      tag_187\n      tag_105\n      jump\t// in\n    tag_187:\n        /* \"#utility.yul\":4983:5039   */\n    tag_186:\n        /* \"#utility.yul\":5057:5086   */\n      tag_188\n        /* \"#utility.yul\":5079:5085   */\n      dup3\n        /* \"#utility.yul\":5057:5086   */\n      tag_97\n      jump\t// in\n    tag_188:\n        /* \"#utility.yul\":5049:5086   */\n      swap1\n      pop\n        /* \"#utility.yul\":5141:5145   */\n      0x20\n        /* \"#utility.yul\":5135:5139   */\n      dup2\n        /* \"#utility.yul\":5131:5146   */\n      add\n        /* \"#utility.yul\":5123:5146   */\n      swap1\n      pop\n        /* \"#utility.yul\":4845:5153   */\n      swap2\n      swap1\n      pop\n      jump\t// out\n        /* \"#utility.yul\":5159:5313   */\n    tag_109:\n        /* \"#utility.yul\":5243:5249   */\n      dup3\n        /* \"#utility.yul\":5238:5241   */\n      dup2\n        /* \"#utility.yul\":5233:5236   */\n      dup4\n        /* \"#utility.yul\":5220:5250   */\n      calldatacopy\n        /* \"#utility.yul\":5305:5306   */\n      0x00\n        /* \"#utility.yul\":5296:5302   */\n      dup4\n        /* \"#utility.yul\":5291:5294   */\n      dup4\n        /* \"#utility.yul\":5287:5303   */\n      add\n        /* \"#utility.yul\":5280:5307   */\n      mstore\n        /* \"#utility.yul\":5159:5313   */\n      pop\n      pop\n      pop\n      jump\t// out\n        /* \"#utility.yul\":5319:5731   */\n    tag_110:\n        /* \"#utility.yul\":5397:5402   */\n      0x00\n        /* \"#utility.yul\":5422:5488   */\n      tag_191\n        /* \"#utility.yul\":5438:5487   */\n      tag_192\n        /* \"#utility.yul\":5480:5486   */\n      dup5\n        /* \"#utility.yul\":5438:5487   */\n      tag_108\n      jump\t// in\n    tag_192:\n        /* \"#utility.yul\":5422:5488   */\n      tag_107\n      jump\t// in\n    tag_191:\n        /* \"#utility.yul\":5413:5488   */\n      swap1\n      pop\n        /* \"#utility.yul\":5511:5517   */\n      dup3\n        /* \"#utility.yul\":5504:5509   */\n      dup2\n        /* \"#utility.yul\":5497:5518   */\n      mstore\n        /* \"#utility.yul\":5549:5553   */\n      0x20\n        /* \"#utility.yul\":5542:5547   */\n      dup2\n        /* \"#utility.yul\":5538:5554   */\n      add\n        /* \"#utility.yul\":5587:5590   */\n      dup5\n        /* \"#utility.yul\":5578:5584   */\n      dup5\n        /* \"#utility.yul\":5573:5576   */\n      dup5\n        /* \"#utility.yul\":5569:5585   */\n      add\n        /* \"#utility.yul\":5566:5591   */\n      gt\n        /* \"#utility.yul\":5563:5675   */\n      iszero\n      tag_193\n      jumpi\n        /* \"#utility.yul\":5594:5673   */\n      tag_194\n      tag_104\n      jump\t// in\n    tag_194:\n        /* \"#utility.yul\":5563:5675   */\n    tag_193:\n        /* \"#utility.yul\":5684:5725   */\n      tag_195\n        /* \"#utility.yul\":5718:5724   */\n      dup5\n        /* \"#utility.yul\":5713:5716   */\n      dup3\n        /* \"#utility.yul\":5708:5711   */\n      dup6\n        /* \"#utility.yul\":5684:5725   */\n      tag_109\n      jump\t// in\n    tag_195:\n        /* \"#utility.yul\":5403:5731   */\n      pop\n        /* \"#utility.yul\":5319:5731   */\n      swap4\n      swap3\n      pop\n      pop\n      pop\n      jump\t// out\n        /* \"#utility.yul\":5751:6091   */\n    tag_111:\n        /* \"#utility.yul\":5807:5812   */\n      0x00\n        /* \"#utility.yul\":5856:5859   */\n      dup3\n        /* \"#utility.yul\":5849:5853   */\n      0x1f\n        /* \"#utility.yul\":5841:5847   */\n      dup4\n        /* \"#utility.yul\":5837:5854   */\n      add\n        /* \"#utility.yul\":5833:5860   */\n      slt\n        /* \"#utility.yul\":5823:5945   */\n      tag_197\n      jumpi\n        /* \"#utility.yul\":5864:5943   */\n      tag_198\n      tag_103\n      jump\t// in\n    tag_198:\n        /* \"#utility.yul\":5823:5945   */\n    tag_197:\n        /* \"#utility.yul\":5981:5987   */\n      dup2\n        /* \"#utility.yul\":5968:5988   */\n      calldataload\n        /* \"#utility.yul\":6006:6085   */\n      tag_199\n        /* \"#utility.yul\":6081:6084   */\n      dup5\n        /* \"#utility.yul\":6073:6079   */\n      dup3\n        /* \"#utility.yul\":6066:6070   */\n      0x20\n        /* \"#utility.yul\":6058:6064   */\n      dup7\n        /* \"#utility.yul\":6054:6071   */\n      add\n        /* \"#utility.yul\":6006:6085   */\n      tag_110\n      jump\t// in\n    tag_199:\n        /* \"#utility.yul\":5997:6085   */\n      swap2\n      pop\n        /* \"#utility.yul\":5813:6091   */\n      pop\n        /* \"#utility.yul\":5751:6091   */\n      swap3\n      swap2\n      pop\n      pop\n      jump\t// out\n        /* \"#utility.yul\":6097:6751   */\n    tag_31:\n        /* \"#utility.yul\":6175:6181   */\n      0x00\n        /* \"#utility.yul\":6183:6189   */\n      dup1\n        /* \"#utility.yul\":6232:6234   */\n      0x40\n        /* \"#utility.yul\":6220:6229   */\n      dup4\n        /* \"#utility.yul\":6211:6218   */\n      dup6\n        /* \"#utility.yul\":6207:6230   */\n      sub\n        /* \"#utility.yul\":6203:6235   */\n      slt\n        /* \"#utility.yul\":6200:6319   */\n      iszero\n      tag_201\n      jumpi\n        /* \"#utility.yul\":6238:6317   */\n      tag_202\n      tag_88\n      jump\t// in\n    tag_202:\n        /* \"#utility.yul\":6200:6319   */\n    tag_201:\n        /* \"#utility.yul\":6358:6359   */\n      0x00\n        /* \"#utility.yul\":6383:6436   */\n      tag_203\n        /* \"#utility.yul\":6428:6435   */\n      dup6\n        /* \"#utility.yul\":6419:6425   */\n      dup3\n        /* \"#utility.yul\":6408:6417   */\n      dup7\n        /* \"#utility.yul\":6404:6426   */\n      add\n        /* \"#utility.yul\":6383:6436   */\n      tag_93\n      jump\t// in\n    tag_203:\n        /* \"#utility.yul\":6373:6436   */\n      swap3\n      pop\n        /* \"#utility.yul\":6329:6446   */\n      pop\n        /* \"#utility.yul\":6513:6515   */\n      0x20\n        /* \"#utility.yul\":6502:6511   */\n      dup4\n        /* \"#utility.yul\":6498:6516   */\n      add\n        /* \"#utility.yul\":6485:6517   */\n      calldataload\n        /* \"#utility.yul\":6544:6562   */\n      0xffffffffffffffff\n        /* \"#utility.yul\":6536:6542   */\n      dup2\n        /* \"#utility.yul\":6533:6563   */\n      gt\n        /* \"#utility.yul\":6530:6647   */\n      iszero\n      tag_204\n      jumpi\n        /* \"#utility.yul\":6566:6645   */\n      tag_205\n      tag_89\n      jump\t// in\n    tag_205:\n        /* \"#utility.yul\":6530:6647   */\n    tag_204:\n        /* \"#utility.yul\":6671:6734   */\n      tag_206\n        /* \"#utility.yul\":6726:6733   */\n      dup6\n        /* \"#utility.yul\":6717:6723   */\n      dup3\n        /* \"#utility.yul\":6706:6715   */\n      dup7\n        /* \"#utility.yul\":6702:6724   */\n      add\n        /* \"#utility.yul\":6671:6734   */\n      tag_111\n      jump\t// in\n    tag_206:\n        /* \"#utility.yul\":6661:6734   */\n      swap2\n      pop\n        /* \"#utility.yul\":6456:6744   */\n      pop\n        /* \"#utility.yul\":6097:6751   */\n      swap3\n      pop\n      swap3\n      swap1\n      pop\n      jump\t// out\n        /* \"#utility.yul\":6757:6900   */\n    tag_112:\n        /* \"#utility.yul\":6853:6859   */\n      0x00\n        /* \"#utility.yul\":6887:6892   */\n      dup2\n        /* \"#utility.yul\":6881:6893   */\n      mload\n        /* \"#utility.yul\":6871:6893   */\n      swap1\n      pop\n        /* \"#utility.yul\":6757:6900   */\n      swap2\n      swap1\n      pop\n      jump\t// out\n        /* \"#utility.yul\":6906:7119   */\n    tag_113:\n        /* \"#utility.yul\":7034:7045   */\n      0x00\n        /* \"#utility.yul\":7068:7074   */\n      dup3\n        /* \"#utility.yul\":7063:7066   */\n      dup3\n        /* \"#utility.yul\":7056:7075   */\n      mstore\n        /* \"#utility.yul\":7108:7112   */\n      0x20\n        /* \"#utility.yul\":7103:7106   */\n      dup3\n        /* \"#utility.yul\":7099:7113   */\n      add\n        /* \"#utility.yul\":7084:7113   */\n      swap1\n      pop\n        /* \"#utility.yul\":6906:7119   */\n      swap3\n      swap2\n      pop\n      pop\n      jump\t// out\n        /* \"#utility.yul\":7125:7286   */\n    tag_114:\n        /* \"#utility.yul\":7221:7225   */\n      0x00\n        /* \"#utility.yul\":7244:7247   */\n      dup2\n        /* \"#utility.yul\":7236:7247   */\n      swap1\n      pop\n        /* \"#utility.yul\":7274:7278   */\n      0x20\n        /* \"#utility.yul\":7269:7272   */\n      dup3\n        /* \"#utility.yul\":7265:7279   */\n      add\n        /* \"#utility.yul\":7257:7279   */\n      swap1\n      pop\n        /* \"#utility.yul\":7125:7286   */\n      swap2\n      swap1\n      pop\n      jump\t// out\n        /* \"#utility.yul\":7292:7451   */\n    tag_115:\n        /* \"#utility.yul\":7366:7377   */\n      0x00\n        /* \"#utility.yul\":7400:7406   */\n      dup3\n        /* \"#utility.yul\":7395:7398   */\n      dup3\n        /* \"#utility.yul\":7388:7407   */\n      mstore\n        /* \"#utility.yul\":7440:7444   */\n      0x20\n        /* \"#utility.yul\":7435:7438   */\n      dup3\n        /* \"#utility.yul\":7431:7445   */\n      add\n        /* \"#utility.yul\":7416:7445   */\n      swap1\n      pop\n        /* \"#utility.yul\":7292:7451   */\n      swap3\n      swap2\n      pop\n      pop\n      jump\t// out\n        /* \"#utility.yul\":7457:7801   */\n    tag_116:\n        /* \"#utility.yul\":7535:7538   */\n      0x00\n        /* \"#utility.yul\":7563:7602   */\n      tag_212\n        /* \"#utility.yul\":7596:7601   */\n      dup3\n        /* \"#utility.yul\":7563:7602   */\n      tag_94\n      jump\t// in\n    tag_212:\n        /* \"#utility.yul\":7618:7679   */\n      tag_213\n        /* \"#utility.yul\":7672:7678   */\n      dup2\n        /* \"#utility.yul\":7667:7670   */\n      dup6\n        /* \"#utility.yul\":7618:7679   */\n      tag_115\n      jump\t// in\n    tag_213:\n        /* \"#utility.yul\":7611:7679   */\n      swap4\n      pop\n        /* \"#utility.yul\":7688:7740   */\n      tag_214\n        /* \"#utility.yul\":7733:7739   */\n      dup2\n        /* \"#utility.yul\":7728:7731   */\n      dup6\n        /* \"#utility.yul\":7721:7725   */\n      0x20\n        /* \"#utility.yul\":7714:7719   */\n      dup7\n        /* \"#utility.yul\":7710:7726   */\n      add\n        /* \"#utility.yul\":7688:7740   */\n      tag_96\n      jump\t// in\n    tag_214:\n        /* \"#utility.yul\":7765:7794   */\n      tag_215\n        /* \"#utility.yul\":7787:7793   */\n      dup2\n        /* \"#utility.yul\":7765:7794   */\n      tag_97\n      jump\t// in\n    tag_215:\n        /* \"#utility.yul\":7760:7763   */\n      dup5\n        /* \"#utility.yul\":7756:7795   */\n      add\n        /* \"#utility.yul\":7749:7795   */\n      swap2\n      pop\n        /* \"#utility.yul\":7539:7801   */\n      pop\n        /* \"#utility.yul\":7457:7801   */\n      swap3\n      swap2\n      pop\n      pop\n      jump\t// out\n        /* \"#utility.yul\":7807:7915   */\n    tag_117:\n        /* \"#utility.yul\":7884:7908   */\n      tag_217\n        /* \"#utility.yul\":7902:7907   */\n      dup2\n        /* \"#utility.yul\":7884:7908   */\n      tag_99\n      jump\t// in\n    tag_217:\n        /* \"#utility.yul\":7879:7882   */\n      dup3\n        /* \"#utility.yul\":7872:7909   */\n      mstore\n        /* \"#utility.yul\":7807:7915   */\n      pop\n      pop\n      jump\t// out\n        /* \"#utility.yul\":7997:8606   */\n    tag_118:\n        /* \"#utility.yul\":8114:8117   */\n      0x00\n        /* \"#utility.yul\":8150:8154   */\n      0x40\n        /* \"#utility.yul\":8145:8148   */\n      dup4\n        /* \"#utility.yul\":8141:8155   */\n      add\n        /* \"#utility.yul\":8242:8246   */\n      0x00\n        /* \"#utility.yul\":8235:8240   */\n      dup4\n        /* \"#utility.yul\":8231:8247   */\n      add\n        /* \"#utility.yul\":8225:8248   */\n      mload\n        /* \"#utility.yul\":8295:8298   */\n      dup5\n        /* \"#utility.yul\":8289:8293   */\n      dup3\n        /* \"#utility.yul\":8285:8299   */\n      sub\n        /* \"#utility.yul\":8278:8282   */\n      0x00\n        /* \"#utility.yul\":8273:8276   */\n      dup7\n        /* \"#utility.yul\":8269:8283   */\n      add\n        /* \"#utility.yul\":8262:8300   */\n      mstore\n        /* \"#utility.yul\":8321:8394   */\n      tag_219\n        /* \"#utility.yul\":8389:8393   */\n      dup3\n        /* \"#utility.yul\":8375:8387   */\n      dup3\n        /* \"#utility.yul\":8321:8394   */\n      tag_116\n      jump\t// in\n    tag_219:\n        /* \"#utility.yul\":8313:8394   */\n      swap2\n      pop\n        /* \"#utility.yul\":8165:8405   */\n      pop\n        /* \"#utility.yul\":8487:8491   */\n      0x20\n        /* \"#utility.yul\":8480:8485   */\n      dup4\n        /* \"#utility.yul\":8476:8492   */\n      add\n        /* \"#utility.yul\":8470:8493   */\n      mload\n        /* \"#utility.yul\":8506:8569   */\n      tag_220\n        /* \"#utility.yul\":8563:8567   */\n      0x20\n        /* \"#utility.yul\":8558:8561   */\n      dup7\n        /* \"#utility.yul\":8554:8568   */\n      add\n        /* \"#utility.yul\":8540:8552   */\n      dup3\n        /* \"#utility.yul\":8506:8569   */\n      tag_117\n      jump\t// in\n    tag_220:\n        /* \"#utility.yul\":8415:8579   */\n      pop\n        /* \"#utility.yul\":8596:8600   */\n      dup1\n        /* \"#utility.yul\":8589:8600   */\n      swap2\n      pop\n        /* \"#utility.yul\":8119:8606   */\n      pop\n        /* \"#utility.yul\":7997:8606   */\n      swap3\n      swap2\n      pop\n      pop\n      jump\t// out\n        /* \"#utility.yul\":8612:8884   */\n    tag_119:\n        /* \"#utility.yul\":8739:8749   */\n      0x00\n        /* \"#utility.yul\":8774:8878   */\n      tag_222\n        /* \"#utility.yul\":8874:8877   */\n      dup4\n        /* \"#utility.yul\":8866:8872   */\n      dup4\n        /* \"#utility.yul\":8774:8878   */\n      tag_118\n      jump\t// in\n    tag_222:\n        /* \"#utility.yul\":8760:8878   */\n      swap1\n      pop\n        /* \"#utility.yul\":8612:8884   */\n      swap3\n      swap2\n      pop\n      pop\n      jump\t// out\n        /* \"#utility.yul\":8890:9032   */\n    tag_120:\n        /* \"#utility.yul\":8989:8993   */\n      0x00\n        /* \"#utility.yul\":9021:9025   */\n      0x20\n        /* \"#utility.yul\":9016:9019   */\n      dup3\n        /* \"#utility.yul\":9012:9026   */\n      add\n        /* \"#utility.yul\":9004:9026   */\n      swap1\n      pop\n        /* \"#utility.yul\":8890:9032   */\n      swap2\n      swap1\n      pop\n      jump\t// out\n        /* \"#utility.yul\":9118:10261   */\n    tag_121:\n        /* \"#utility.yul\":9295:9298   */\n      0x00\n        /* \"#utility.yul\":9324:9407   */\n      tag_225\n        /* \"#utility.yul\":9401:9406   */\n      dup3\n        /* \"#utility.yul\":9324:9407   */\n      tag_112\n      jump\t// in\n    tag_225:\n        /* \"#utility.yul\":9423:9538   */\n      tag_226\n        /* \"#utility.yul\":9531:9537   */\n      dup2\n        /* \"#utility.yul\":9526:9529   */\n      dup6\n        /* \"#utility.yul\":9423:9538   */\n      tag_113\n      jump\t// in\n    tag_226:\n        /* \"#utility.yul\":9416:9538   */\n      swap4\n      pop\n        /* \"#utility.yul\":9564:9567   */\n      dup4\n        /* \"#utility.yul\":9609:9613   */\n      0x20\n        /* \"#utility.yul\":9601:9607   */\n      dup3\n        /* \"#utility.yul\":9597:9614   */\n      mul\n        /* \"#utility.yul\":9592:9595   */\n      dup6\n        /* \"#utility.yul\":9588:9615   */\n      add\n        /* \"#utility.yul\":9639:9724   */\n      tag_227\n        /* \"#utility.yul\":9718:9723   */\n      dup6\n        /* \"#utility.yul\":9639:9724   */\n      tag_114\n      jump\t// in\n    tag_227:\n        /* \"#utility.yul\":9747:9754   */\n      dup1\n        /* \"#utility.yul\":9778:9779   */\n      0x00\n        /* \"#utility.yul\":9763:10216   */\n    tag_228:\n        /* \"#utility.yul\":9788:9794   */\n      dup6\n        /* \"#utility.yul\":9785:9786   */\n      dup2\n        /* \"#utility.yul\":9782:9795   */\n      lt\n        /* \"#utility.yul\":9763:10216   */\n      iszero\n      tag_230\n      jumpi\n        /* \"#utility.yul\":9859:9868   */\n      dup5\n        /* \"#utility.yul\":9853:9857   */\n      dup5\n        /* \"#utility.yul\":9849:9869   */\n      sub\n        /* \"#utility.yul\":9844:9847   */\n      dup10\n        /* \"#utility.yul\":9837:9870   */\n      mstore\n        /* \"#utility.yul\":9910:9916   */\n      dup2\n        /* \"#utility.yul\":9904:9917   */\n      mload\n        /* \"#utility.yul\":9938:10060   */\n      tag_231\n        /* \"#utility.yul\":10055:10059   */\n      dup6\n        /* \"#utility.yul\":10040:10053   */\n      dup3\n        /* \"#utility.yul\":9938:10060   */\n      tag_119\n      jump\t// in\n    tag_231:\n        /* \"#utility.yul\":9930:10060   */\n      swap5\n      pop\n        /* \"#utility.yul\":10083:10172   */\n      tag_232\n        /* \"#utility.yul\":10165:10171   */\n      dup4\n        /* \"#utility.yul\":10083:10172   */\n      tag_120\n      jump\t// in\n    tag_232:\n        /* \"#utility.yul\":10073:10172   */\n      swap3\n      pop\n        /* \"#utility.yul\":10201:10205   */\n      0x20\n        /* \"#utility.yul\":10196:10199   */\n      dup11\n        /* \"#utility.yul\":10192:10206   */\n      add\n        /* \"#utility.yul\":10185:10206   */\n      swap10\n      pop\n        /* \"#utility.yul\":9823:10216   */\n      pop\n        /* \"#utility.yul\":9810:9811   */\n      0x01\n        /* \"#utility.yul\":9807:9808   */\n      dup2\n        /* \"#utility.yul\":9803:9812   */\n      add\n        /* \"#utility.yul\":9798:9812   */\n      swap1\n      pop\n        /* \"#utility.yul\":9763:10216   */\n      jump(tag_228)\n    tag_230:\n        /* \"#utility.yul\":9767:9781   */\n      pop\n        /* \"#utility.yul\":10232:10236   */\n      dup3\n        /* \"#utility.yul\":10225:10236   */\n      swap8\n      pop\n        /* \"#utility.yul\":10252:10255   */\n      dup8\n        /* \"#utility.yul\":10245:10255   */\n      swap6\n      pop\n        /* \"#utility.yul\":9300:10261   */\n      pop\n      pop\n      pop\n      pop\n      pop\n        /* \"#utility.yul\":9118:10261   */\n      swap3\n      swap2\n      pop\n      pop\n      jump\t// out\n        /* \"#utility.yul\":10267:10756   */\n    tag_37:\n        /* \"#utility.yul\":10468:10472   */\n      0x00\n        /* \"#utility.yul\":10506:10508   */\n      0x20\n        /* \"#utility.yul\":10495:10504   */\n      dup3\n        /* \"#utility.yul\":10491:10509   */\n      add\n        /* \"#utility.yul\":10483:10509   */\n      swap1\n      pop\n        /* \"#utility.yul\":10555:10564   */\n      dup2\n        /* \"#utility.yul\":10549:10553   */\n      dup2\n        /* \"#utility.yul\":10545:10565   */\n      sub\n        /* \"#utility.yul\":10541:10542   */\n      0x00\n        /* \"#utility.yul\":10530:10539   */\n      dup4\n        /* \"#utility.yul\":10526:10543   */\n      add\n        /* \"#utility.yul\":10519:10566   */\n      mstore\n        /* \"#utility.yul\":10583:10749   */\n      tag_234\n        /* \"#utility.yul\":10744:10748   */\n      dup2\n        /* \"#utility.yul\":10735:10741   */\n      dup5\n        /* \"#utility.yul\":10583:10749   */\n      tag_121\n      jump\t// in\n    tag_234:\n        /* \"#utility.yul\":10575:10749   */\n      swap1\n      pop\n        /* \"#utility.yul\":10267:10756   */\n      swap3\n      swap2\n      pop\n      pop\n      jump\t// out\n        /* \"#utility.yul\":10762:10884   */\n    tag_122:\n        /* \"#utility.yul\":10835:10859   */\n      tag_236\n        /* \"#utility.yul\":10853:10858   */\n      dup2\n        /* \"#utility.yul\":10835:10859   */\n      tag_99\n      jump\t// in\n    tag_236:\n        /* \"#utility.yul\":10828:10833   */\n      dup2\n        /* \"#utility.yul\":10825:10860   */\n      eq\n        /* \"#utility.yul\":10815:10878   */\n      tag_237\n      jumpi\n        /* \"#utility.yul\":10874:10875   */\n      0x00\n        /* \"#utility.yul\":10871:10872   */\n      dup1\n        /* \"#utility.yul\":10864:10876   */\n      revert\n        /* \"#utility.yul\":10815:10878   */\n    tag_237:\n        /* \"#utility.yul\":10762:10884   */\n      pop\n      jump\t// out\n        /* \"#utility.yul\":10890:11029   */\n    tag_123:\n        /* \"#utility.yul\":10936:10941   */\n      0x00\n        /* \"#utility.yul\":10974:10980   */\n      dup2\n        /* \"#utility.yul\":10961:10981   */\n      calldataload\n        /* \"#utility.yul\":10952:10981   */\n      swap1\n      pop\n        /* \"#utility.yul\":10990:11023   */\n      tag_239\n        /* \"#utility.yul\":11017:11022   */\n      dup2\n        /* \"#utility.yul\":10990:11023   */\n      tag_122\n      jump\t// in\n    tag_239:\n        /* \"#utility.yul\":10890:11029   */\n      swap3\n      swap2\n      pop\n      pop\n      jump\t// out\n        /* \"#utility.yul\":11035:11689   */\n    tag_40:\n        /* \"#utility.yul\":11113:11119   */\n      0x00\n        /* \"#utility.yul\":11121:11127   */\n      dup1\n        /* \"#utility.yul\":11170:11172   */\n      0x40\n        /* \"#utility.yul\":11158:11167   */\n      dup4\n        /* \"#utility.yul\":11149:11156   */\n      dup6\n        /* \"#utility.yul\":11145:11168   */\n      sub\n        /* \"#utility.yul\":11141:11173   */\n      slt\n        /* \"#utility.yul\":11138:11257   */\n      iszero\n      tag_241\n      jumpi\n        /* \"#utility.yul\":11176:11255   */\n      tag_242\n      tag_88\n      jump\t// in\n    tag_242:\n        /* \"#utility.yul\":11138:11257   */\n    tag_241:\n        /* \"#utility.yul\":11324:11325   */\n      0x00\n        /* \"#utility.yul\":11313:11322   */\n      dup4\n        /* \"#utility.yul\":11309:11326   */\n      add\n        /* \"#utility.yul\":11296:11327   */\n      calldataload\n        /* \"#utility.yul\":11354:11372   */\n      0xffffffffffffffff\n        /* \"#utility.yul\":11346:11352   */\n      dup2\n        /* \"#utility.yul\":11343:11373   */\n      gt\n        /* \"#utility.yul\":11340:11457   */\n      iszero\n      tag_243\n      jumpi\n        /* \"#utility.yul\":11376:11455   */\n      tag_244\n      tag_89\n      jump\t// in\n    tag_244:\n        /* \"#utility.yul\":11340:11457   */\n    tag_243:\n        /* \"#utility.yul\":11481:11544   */\n      tag_245\n        /* \"#utility.yul\":11536:11543   */\n      dup6\n        /* \"#utility.yul\":11527:11533   */\n      dup3\n        /* \"#utility.yul\":11516:11525   */\n      dup7\n        /* \"#utility.yul\":11512:11534   */\n      add\n        /* \"#utility.yul\":11481:11544   */\n      tag_111\n      jump\t// in\n    tag_245:\n        /* \"#utility.yul\":11471:11544   */\n      swap3\n      pop\n        /* \"#utility.yul\":11267:11554   */\n      pop\n        /* \"#utility.yul\":11593:11595   */\n      0x20\n        /* \"#utility.yul\":11619:11672   */\n      tag_246\n        /* \"#utility.yul\":11664:11671   */\n      dup6\n        /* \"#utility.yul\":11655:11661   */\n      dup3\n        /* \"#utility.yul\":11644:11653   */\n      dup7\n        /* \"#utility.yul\":11640:11662   */\n      add\n        /* \"#utility.yul\":11619:11672   */\n      tag_123\n      jump\t// in\n    tag_246:\n        /* \"#utility.yul\":11609:11672   */\n      swap2\n      pop\n        /* \"#utility.yul\":11564:11682   */\n      pop\n        /* \"#utility.yul\":11035:11689   */\n      swap3\n      pop\n      swap3\n      swap1\n      pop\n      jump\t// out\n        /* \"#utility.yul\":11695:11875   */\n    tag_124:\n        /* \"#utility.yul\":11743:11820   */\n      0x4e487b7100000000000000000000000000000000000000000000000000000000\n        /* \"#utility.yul\":11740:11741   */\n      0x00\n        /* \"#utility.yul\":11733:11821   */\n      mstore\n        /* \"#utility.yul\":11840:11844   */\n      0x22\n        /* \"#utility.yul\":11837:11838   */\n      0x04\n        /* \"#utility.yul\":11830:11845   */\n      mstore\n        /* \"#utility.yul\":11864:11868   */\n      0x24\n        /* \"#utility.yul\":11861:11862   */\n      0x00\n        /* \"#utility.yul\":11854:11869   */\n      revert\n        /* \"#utility.yul\":11881:12201   */\n    tag_43:\n        /* \"#utility.yul\":11925:11931   */\n      0x00\n        /* \"#utility.yul\":11962:11963   */\n      0x02\n        /* \"#utility.yul\":11956:11960   */\n      dup3\n        /* \"#utility.yul\":11952:11964   */\n      div\n        /* \"#utility.yul\":11942:11964   */\n      swap1\n      pop\n        /* \"#utility.yul\":12009:12010   */\n      0x01\n        /* \"#utility.yul\":12003:12007   */\n      dup3\n        /* \"#utility.yul\":11999:12011   */\n      and\n        /* \"#utility.yul\":12030:12048   */\n      dup1\n        /* \"#utility.yul\":12020:12101   */\n      tag_249\n      jumpi\n        /* \"#utility.yul\":12086:12090   */\n      0x7f\n        /* \"#utility.yul\":12078:12084   */\n      dup3\n        /* \"#utility.yul\":12074:12091   */\n      and\n        /* \"#utility.yul\":12064:12091   */\n      swap2\n      pop\n        /* \"#utility.yul\":12020:12101   */\n    tag_249:\n        /* \"#utility.yul\":12148:12150   */\n      0x20\n        /* \"#utility.yul\":12140:12146   */\n      dup3\n        /* \"#utility.yul\":12137:12151   */\n      lt\n        /* \"#utility.yul\":12117:12135   */\n      dup2\n        /* \"#utility.yul\":12114:12152   */\n      eq\n        /* \"#utility.yul\":12111:12195   */\n      iszero\n      tag_250\n      jumpi\n        /* \"#utility.yul\":12167:12185   */\n      tag_251\n      tag_124\n      jump\t// in\n    tag_251:\n        /* \"#utility.yul\":12111:12195   */\n    tag_250:\n        /* \"#utility.yul\":11932:12201   */\n      pop\n        /* \"#utility.yul\":11881:12201   */\n      swap2\n      swap1\n      pop\n      jump\t// out\n        /* \"#utility.yul\":12207:12433   */\n    tag_125:\n        /* \"#utility.yul\":12347:12381   */\n      0x4f6e6c7920617574686f72697a656420646f63746f72732063616e2061646420\n        /* \"#utility.yul\":12343:12344   */\n      0x00\n        /* \"#utility.yul\":12335:12341   */\n      dup3\n        /* \"#utility.yul\":12331:12345   */\n      add\n        /* \"#utility.yul\":12324:12382   */\n      mstore\n        /* \"#utility.yul\":12416:12425   */\n      0x7265636f72647300000000000000000000000000000000000000000000000000\n        /* \"#utility.yul\":12411:12413   */\n      0x20\n        /* \"#utility.yul\":12403:12409   */\n      dup3\n        /* \"#utility.yul\":12399:12414   */\n      add\n        /* \"#utility.yul\":12392:12426   */\n      mstore\n        /* \"#utility.yul\":12207:12433   */\n      pop\n      jump\t// out\n        /* \"#utility.yul\":12439:12805   */\n    tag_126:\n        /* \"#utility.yul\":12581:12584   */\n      0x00\n        /* \"#utility.yul\":12602:12669   */\n      tag_254\n        /* \"#utility.yul\":12666:12668   */\n      0x27\n        /* \"#utility.yul\":12661:12664   */\n      dup4\n        /* \"#utility.yul\":12602:12669   */\n      tag_95\n      jump\t// in\n    tag_254:\n        /* \"#utility.yul\":12595:12669   */\n      swap2\n      pop\n        /* \"#utility.yul\":12678:12771   */\n      tag_255\n        /* \"#utility.yul\":12767:12770   */\n      dup3\n        /* \"#utility.yul\":12678:12771   */\n      tag_125\n      jump\t// in\n    tag_255:\n        /* \"#utility.yul\":12796:12798   */\n      0x40\n        /* \"#utility.yul\":12791:12794   */\n      dup3\n        /* \"#utility.yul\":12787:12799   */\n      add\n        /* \"#utility.yul\":12780:12799   */\n      swap1\n      pop\n        /* \"#utility.yul\":12439:12805   */\n      swap2\n      swap1\n      pop\n      jump\t// out\n        /* \"#utility.yul\":12811:13230   */\n    tag_58:\n        /* \"#utility.yul\":12977:12981   */\n      0x00\n        /* \"#utility.yul\":13015:13017   */\n      0x20\n        /* \"#utility.yul\":13004:13013   */\n      dup3\n        /* \"#utility.yul\":13000:13018   */\n      add\n        /* \"#utility.yul\":12992:13018   */\n      swap1\n      pop\n        /* \"#utility.yul\":13064:13073   */\n      dup2\n        /* \"#utility.yul\":13058:13062   */\n      dup2\n        /* \"#utility.yul\":13054:13074   */\n      sub\n        /* \"#utility.yul\":13050:13051   */\n      0x00\n        /* \"#utility.yul\":13039:13048   */\n      dup4\n        /* \"#utility.yul\":13035:13052   */\n      add\n        /* \"#utility.yul\":13028:13075   */\n      mstore\n        /* \"#utility.yul\":13092:13223   */\n      tag_257\n        /* \"#utility.yul\":13218:13222   */\n      dup2\n        /* \"#utility.yul\":13092:13223   */\n      tag_126\n      jump\t// in\n    tag_257:\n        /* \"#utility.yul\":13084:13223   */\n      swap1\n      pop\n        /* \"#utility.yul\":12811:13230   */\n      swap2\n      swap1\n      pop\n      jump\t// out\n        /* \"#utility.yul\":13236:13474   */\n    tag_127:\n        /* \"#utility.yul\":13376:13410   */\n      0x4f6e6c792070617469656e74206f7220617574686f72697a656420646f63746f\n        /* \"#utility.yul\":13372:13373   */\n      0x00\n        /* \"#utility.yul\":13364:13370   */\n      dup3\n        /* \"#utility.yul\":13360:13374   */\n      add\n        /* \"#utility.yul\":13353:13411   */\n      mstore\n        /* \"#utility.yul\":13445:13466   */\n      0x72732063616e2076696577207265636f72647300000000000000000000000000\n        /* \"#utility.yul\":13440:13442   */\n      0x20\n        /* \"#utility.yul\":13432:13438   */\n      dup3\n        /* \"#utility.yul\":13428:13443   */\n      add\n        /* \"#utility.yul\":13421:13467   */\n      mstore\n        /* \"#utility.yul\":13236:13474   */\n      pop\n      jump\t// out\n        /* \"#utility.yul\":13480:13846   */\n    tag_128:\n        /* \"#utility.yul\":13622:13625   */\n      0x00\n        /* \"#utility.yul\":13643:13710   */\n      tag_260\n        /* \"#utility.yul\":13707:13709   */\n      0x33\n        /* \"#utility.yul\":13702:13705   */\n      dup4\n        /* \"#utility.yul\":13643:13710   */\n      tag_95\n      jump\t// in\n    tag_260:\n        /* \"#utility.yul\":13636:13710   */\n      swap2\n      pop\n        /* \"#utility.yul\":13719:13812   */\n      tag_261\n        /* \"#utility.yul\":13808:13811   */\n      dup3\n        /* \"#utility.yul\":13719:13812   */\n      tag_127\n      jump\t// in\n    tag_261:\n        /* \"#utility.yul\":13837:13839   */\n      0x40\n        /* \"#utility.yul\":13832:13835   */\n      dup3\n        /* \"#utility.yul\":13828:13840   */\n      add\n        /* \"#utility.yul\":13821:13840   */\n      swap1\n      pop\n        /* \"#utility.yul\":13480:13846   */\n      swap2\n      swap1\n      pop\n      jump\t// out\n        /* \"#utility.yul\":13852:14271   */\n    tag_66:\n        /* \"#utility.yul\":14018:14022   */\n      0x00\n        /* \"#utility.yul\":14056:14058   */\n      0x20\n        /* \"#utility.yul\":14045:14054   */\n      dup3\n        /* \"#utility.yul\":14041:14059   */\n      add\n        /* \"#utility.yul\":14033:14059   */\n      swap1\n      pop\n        /* \"#utility.yul\":14105:14114   */\n      dup2\n        /* \"#utility.yul\":14099:14103   */\n      dup2\n        /* \"#utility.yul\":14095:14115   */\n      sub\n        /* \"#utility.yul\":14091:14092   */\n      0x00\n        /* \"#utility.yul\":14080:14089   */\n      dup4\n        /* \"#utility.yul\":14076:14093   */\n      add\n        /* \"#utility.yul\":14069:14116   */\n      mstore\n        /* \"#utility.yul\":14133:14264   */\n      tag_263\n        /* \"#utility.yul\":14259:14263   */\n      dup2\n        /* \"#utility.yul\":14133:14264   */\n      tag_128\n      jump\t// in\n    tag_263:\n        /* \"#utility.yul\":14125:14264   */\n      swap1\n      pop\n        /* \"#utility.yul\":13852:14271   */\n      swap2\n      swap1\n      pop\n      jump\t// out\n\n    auxdata: 0xa264697066735822122029fb1d842ba7583c2fb8e99ee8d0f9b9676ae3789a28158d3b0bf55ced1ac5f064736f6c63430008090033\n}\n",
    "bytecode": {
      "linkReferences": {},
      "object": "608060405234801561001057600080fd5b50611066806100206000396000f3fe608060405234801561001057600080fd5b506004361061007d5760003560e01c806358c9202c1161005b57806358c9202c1461010057806366858ec81461011c578063a0076e8414610138578063a5b7d984146101685761007d565b80630869cfbc146100825780631cd5c6e9146100b45780632b95c5fa146100e4575b600080fd5b61009c6004803603810190610097919061097e565b610184565b6040516100ab93929190610a5d565b60405180910390f35b6100ce60048036038101906100c99190610aa2565b6102be565b6040516100db9190610afd565b60405180910390f35b6100fe60048036038101906100f9919061097e565b6102ed565b005b61011a6004803603810190610115919061097e565b610385565b005b61013660048036038101906101319190610c4d565b61041d565b005b610152600480360381019061014d919061097e565b610590565b60405161015f9190610e01565b60405180910390f35b610182600480360381019061017d9190610e4f565b6107c9565b005b60006020528060005260406000206000915090508060000180546101a790610eda565b80601f01602080910402602001604051908101604052809291908181526020018280546101d390610eda565b80156102205780601f106101f557610100808354040283529160200191610220565b820191906000526020600020905b81548152906001019060200180831161020357829003601f168201915b50505050509080600101549080600201805461023b90610eda565b80601f016020809104026020016040519081016040528092919081815260200182805461026790610eda565b80156102b45780601f10610289576101008083540402835291602001916102b4565b820191906000526020600020905b81548152906001019060200180831161029757829003601f168201915b5050505050905083565b60026020528160005260406000206020528060005260406000206000915091509054906101000a900460ff1681565b6000600260003373ffffffffffffffffffffffffffffffffffffffff1673ffffffffffffffffffffffffffffffffffffffff16815260200190815260200160002060008373ffffffffffffffffffffffffffffffffffffffff1673ffffffffffffffffffffffffffffffffffffffff16815260200190815260200160002060006101000a81548160ff02191690831515021790555050565b6001600260003373ffffffffffffffffffffffffffffffffffffffff1673ffffffffffffffffffffffffffffffffffffffff16815260200190815260200160002060008373ffffffffffffffffffffffffffffffffffffffff1673ffffffffffffffffffffffffffffffffffffffff16815260200190815260200160002060006101000a81548160ff02191690831515021790555050565b600260008373ffffffffffffffffffffffffffffffffffffffff1673ffffffffffffffffffffffffffffffffffffffff16815260200190815260200160002060003373ffffffffffffffffffffffffffffffffffffffff1673ffffffffffffffffffffffffffffffffffffffff16815260200190815260200160002060009054906101000a900460ff166104e6576040517f08c379a00000000000000000000000000000000000000000000000000000000081526004016104dd90610f7e565b60405180910390fd5b600160008373ffffffffffffffffffffffffffffffffffffffff1673ffffffffffffffffffffffffffffffffffffffff1681526020019081526020016000206040518060400160405280838152602001428152509080600181540180825580915050600190039060005260206000209060020201600090919091909150600082015181600001908051906020019061057f929190610869565b506020820151816001015550505050565b60608173ffffffffffffffffffffffffffffffffffffffff163373ffffffffffffffffffffffffffffffffffffffff1614806106525750600260008373ffffffffffffffffffffffffffffffffffffffff1673ffffffffffffffffffffffffffffffffffffffff16815260200190815260200160002060003373ffffffffffffffffffffffffffffffffffffffff1673ffffffffffffffffffffffffffffffffffffffff16815260200190815260200160002060009054906101000a900460ff165b610691576040517f08c379a000000000000000000000000000000000000000000000000000000000815260040161068890611010565b60405180910390fd5b600160008373ffffffffffffffffffffffffffffffffffffffff1673ffffffffffffffffffffffffffffffffffffffff168152602001908152602001600020805480602002602001604051908101604052809291908181526020016000905b828210156107be578382906000526020600020906002020160405180604001604052908160008201805461072390610eda565b80601f016020809104026020016040519081016040528092919081815260200182805461074f90610eda565b801561079c5780601f106107715761010080835404028352916020019161079c565b820191906000526020600020905b81548152906001019060200180831161077f57829003601f168201915b50505050508152602001600182015481525050815260200190600101906106f0565b505050509050919050565b816000803373ffffffffffffffffffffffffffffffffffffffff1673ffffffffffffffffffffffffffffffffffffffff168152602001908152602001600020600001908051906020019061081e929190610869565b50806000803373ffffffffffffffffffffffffffffffffffffffff1673ffffffffffffffffffffffffffffffffffffffff168152602001908152602001600020600101819055505050565b82805461087590610eda565b90600052602060002090601f01602090048101928261089757600085556108de565b82601f106108b057805160ff19168380011785556108de565b828001600101855582156108de579182015b828111156108dd5782518255916020019190600101906108c2565b5b5090506108eb91906108ef565b5090565b5b808211156109085760008160009055506001016108f0565b5090565b6000604051905090565b600080fd5b600080fd5b600073ffffffffffffffffffffffffffffffffffffffff82169050919050565b600061094b82610920565b9050919050565b61095b81610940565b811461096657600080fd5b50565b60008135905061097881610952565b92915050565b60006020828403121561099457610993610916565b5b60006109a284828501610969565b91505092915050565b600081519050919050565b600082825260208201905092915050565b60005b838110156109e55780820151818401526020810190506109ca565b838111156109f4576000848401525b50505050565b6000601f19601f8301169050919050565b6000610a16826109ab565b610a2081856109b6565b9350610a308185602086016109c7565b610a39816109fa565b840191505092915050565b6000819050919050565b610a5781610a44565b82525050565b60006060820190508181036000830152610a778186610a0b565b9050610a866020830185610a4e565b8181036040830152610a988184610a0b565b9050949350505050565b60008060408385031215610ab957610ab8610916565b5b6000610ac785828601610969565b9250506020610ad885828601610969565b9150509250929050565b60008115159050919050565b610af781610ae2565b82525050565b6000602082019050610b126000830184610aee565b92915050565b600080fd5b600080fd5b7f4e487b7100000000000000000000000000000000000000000000000000000000600052604160045260246000fd5b610b5a826109fa565b810181811067ffffffffffffffff82111715610b7957610b78610b22565b5b80604052505050565b6000610b8c61090c565b9050610b988282610b51565b919050565b600067ffffffffffffffff821115610bb857610bb7610b22565b5b610bc1826109fa565b9050602081019050919050565b82818337600083830152505050565b6000610bf0610beb84610b9d565b610b82565b905082815260208101848484011115610c0c57610c0b610b1d565b5b610c17848285610bce565b509392505050565b600082601f830112610c3457610c33610b18565b5b8135610c44848260208601610bdd565b91505092915050565b60008060408385031215610c6457610c63610916565b5b6000610c7285828601610969565b925050602083013567ffffffffffffffff811115610c9357610c9261091b565b5b610c9f85828601610c1f565b9150509250929050565b600081519050919050565b600082825260208201905092915050565b6000819050602082019050919050565b600082825260208201905092915050565b6000610cf1826109ab565b610cfb8185610cd5565b9350610d0b8185602086016109c7565b610d14816109fa565b840191505092915050565b610d2881610a44565b82525050565b60006040830160008301518482036000860152610d4b8282610ce6565b9150506020830151610d606020860182610d1f565b508091505092915050565b6000610d778383610d2e565b905092915050565b6000602082019050919050565b6000610d9782610ca9565b610da18185610cb4565b935083602082028501610db385610cc5565b8060005b85811015610def5784840389528151610dd08582610d6b565b9450610ddb83610d7f565b925060208a01995050600181019050610db7565b50829750879550505050505092915050565b60006020820190508181036000830152610e1b8184610d8c565b905092915050565b610e2c81610a44565b8114610e3757600080fd5b50565b600081359050610e4981610e23565b92915050565b60008060408385031215610e6657610e65610916565b5b600083013567ffffffffffffffff811115610e8457610e8361091b565b5b610e9085828601610c1f565b9250506020610ea185828601610e3a565b9150509250929050565b7f4e487b7100000000000000000000000000000000000000000000000000000000600052602260045260246000fd5b60006002820490506001821680610ef257607f821691505b60208210811415610f0657610f05610eab565b5b50919050565b7f4f6e6c7920617574686f72697a656420646f63746f72732063616e206164642060008201527f7265636f72647300000000000000000000000000000000000000000000000000602082015250565b6000610f686027836109b6565b9150610f7382610f0c565b604082019050919050565b60006020820190508181036000830152610f9781610f5b565b9050919050565b7f4f6e6c792070617469656e74206f7220617574686f72697a656420646f63746f60008201527f72732063616e2076696577207265636f72647300000000000000000000000000602082015250565b6000610ffa6033836109b6565b915061100582610f9e565b604082019050919050565b6000602082019050818103600083015261102981610fed565b905091905056fea264697066735822122029fb1d842ba7583c2fb8e99ee8d0f9b9676ae3789a28158d3b0bf55ced1ac5f064736f6c63430008090033",
      "opcodes": "PUSH1 0x80 PUSH1 0x40 MSTORE CALLVALUE DUP1 ISZERO PUSH2 0x10 JUMPI PUSH1 0x0 DUP1 REVERT JUMPDEST POP PUSH2 0x1066 DUP1 PUSH2 0x20 PUSH1 0x0 CODECOPY PUSH1 0x0 RETURN INVALID PUSH1 0x80 PUSH1 0x40 MSTORE CALLVALUE DUP1 ISZERO PUSH2 0x10 JUMPI PUSH1 0x0 DUP1 REVERT JUMPDEST POP PUSH1 0x4 CALLDATASIZE LT PUSH2 0x7D JUMPI PUSH1 0x0 CALLDATALOAD PUSH1 0xE0 SHR DUP1 PUSH4 0x58C9202C GT PUSH2 0x5B JUMPI DUP1 PUSH4 0x58C9202C EQ PUSH2 0x100 JUMPI DUP1 PUSH4 0x66858EC8 EQ PUSH2 0x11C JUMPI DUP1 PUSH4 0xA0076E84 EQ PUSH2 0x138 JUMPI DUP1 PUSH4 0xA5B7D984 EQ PUSH2 0x168 JUMPI PUSH2 0x7D JUMP JUMPDEST DUP1 PUSH4 0x869CFBC EQ PUSH2 0x82 JUMPI DUP1 PUSH4 0x1CD5C6E9 EQ PUSH2 0xB4 JUMPI DUP1 PUSH4 0x2B95C5FA EQ PUSH2 0xE4 JUMPI JUMPDEST PUSH1 0x0 DUP1 REVERT JUMPDEST PUSH2 0x9C PUSH1 0x4 DUP1 CALLDATASIZE SUB DUP2 ADD SWAP1 PUSH2 0x97 SWAP2 SWAP1 PUSH2 0x97E JUMP JUMPDEST PUSH2 0x184 JUMP JUMPDEST PUSH1 0x40 MLOAD PUSH2 0xAB SWAP4 SWAP3 SWAP2 SWAP1 PUSH2 0xA5D JUMP JUMPDEST PUSH1 0x40 MLOAD DUP1 SWAP2 SUB SWAP1 RETURN JUMPDEST PUSH2 0xCE PUSH1 0x4 DUP1 CALLDATASIZE SUB DUP2 ADD SWAP1 PUSH2 0xC9 SWAP2 SWAP1 PUSH2 0xAA2 JUMP JUMPDEST PUSH2 0x2BE JUMP JUMPDEST PUSH1 0x40 MLOAD PUSH2 0xDB SWAP2 SWAP1 PUSH2 0xAFD JUMP JUMPDEST PUSH1 0x40 MLOAD DUP1 SWAP2 SUB SWAP1 RETURN JUMPDEST PUSH2 0xFE PUSH1 0x4 DUP1 CALLDATASIZE SUB DUP2 ADD SWAP1 PUSH2 0xF9 SWAP2 SWAP1 PUSH2 0x97E JUMP JUMPDEST PUSH2 0x2ED JUMP JUMPDEST STOP JUMPDEST PUSH2 0x11A PUSH1 0x4 DUP1 CALLDATASIZE SUB DUP2 ADD SWAP1 PUSH2 0x115 SWAP2 SWAP1 PUSH2 0x97E JUMP JUMPDEST PUSH2 0x385 JUMP JUMPDEST STOP JUMPDEST PUSH2 0x136 PUSH1 0x4 DUP1 CALLDATASIZE SUB DUP2 ADD SWAP1 PUSH2 0x131 SWAP2 SWAP1 PUSH2 0xC4D JUMP JUMPDEST PUSH2 0x41D JUMP JUMPDEST STOP JUMPDEST PUSH2 0x152 PUSH1 0x4 DUP1 CALLDATASIZE SUB DUP2 ADD SWAP1 PUSH2 0x14D SWAP2 SWAP1 PUSH2 0x97E JUMP JUMPDEST PUSH2 0x590 JUMP JUMPDEST PUSH1 0x40 MLOAD PUSH2 0x15F SWAP2 SWAP1 PUSH2 0xE01 JUMP JUMPDEST PUSH1 0x40 MLOAD DUP1 SWAP2 SUB SWAP1 RETURN JUMPDEST PUSH2 0x182 PUSH1 0x4 DUP1 CALLDATASIZE SUB DUP2 ADD SWAP1 PUSH2 0x17D SWAP2 SWAP1 PUSH2 0xE4F JUMP JUMPDEST PUSH2 0x7C9 JUMP JUMPDEST STOP JUMPDEST PUSH1 0x0 PUSH1 0x20 MSTORE DUP1 PUSH1 0x0 MSTORE PUSH1 0x40 PUSH1 0x0 KECCAK256 PUSH1 0x0 SWAP2 POP SWAP1 POP DUP1 PUSH1 0x0 ADD DUP1 SLOAD PUSH2 0x1A7 SWAP1 PUSH2 0xEDA JUMP JUMPDEST DUP1 PUSH1 0x1F ADD PUSH1 0x20 DUP1 SWAP2 DIV MUL PUSH1 0x20 ADD PUSH1 0x40 MLOAD SWAP1 DUP2 ADD PUSH1 0x40 MSTORE DUP1 SWAP3 SWAP2 SWAP1 DUP2 DUP2 MSTORE PUSH1 0x20 ADD DUP3 DUP1 SLOAD PUSH2 0x1D3 SWAP1 PUSH2 0xEDA JUMP JUMPDEST DUP1 ISZERO PUSH2 0x220 JUMPI DUP1 PUSH1 0x1F LT PUSH2 0x1F5 JUMPI PUSH2 0x100 DUP1 DUP4 SLOAD DIV MUL DUP4 MSTORE SWAP2 PUSH1 0x20 ADD SWAP2 PUSH2 0x220 JUMP JUMPDEST DUP3 ADD SWAP2 SWAP1 PUSH1 0x0 MSTORE PUSH1 0x20 PUSH1 0x0 KECCAK256 SWAP1 JUMPDEST DUP2 SLOAD DUP2 MSTORE SWAP1 PUSH1 0x1 ADD SWAP1 PUSH1 0x20 ADD DUP1 DUP4 GT PUSH2 0x203 JUMPI DUP3 SWAP1 SUB PUSH1 0x1F AND DUP3 ADD SWAP2 JUMPDEST POP POP POP POP POP SWAP1 DUP1 PUSH1 0x1 ADD SLOAD SWAP1 DUP1 PUSH1 0x2 ADD DUP1 SLOAD PUSH2 0x23B SWAP1 PUSH2 0xEDA JUMP JUMPDEST DUP1 PUSH1 0x1F ADD PUSH1 0x20 DUP1 SWAP2 DIV MUL PUSH1 0x20 ADD PUSH1 0x40 MLOAD SWAP1 DUP2 ADD PUSH1 0x40 MSTORE DUP1 SWAP3 SWAP2 SWAP1 DUP2 DUP2 MSTORE PUSH1 0x20 ADD DUP3 DUP1 SLOAD PUSH2 0x267 SWAP1 PUSH2 0xEDA JUMP JUMPDEST DUP1 ISZERO PUSH2 0x2B4 JUMPI DUP1 PUSH1 0x1F LT PUSH2 0x289 JUMPI PUSH2 0x100 DUP1 DUP4 SLOAD DIV MUL DUP4 MSTORE SWAP2 PUSH1 0x20 ADD SWAP2 PUSH2 0x2B4 JUMP JUMPDEST DUP3 ADD SWAP2 SWAP1 PUSH1 0x0 MSTORE PUSH1 0x20 PUSH1 0x0 KECCAK256 SWAP1 JUMPDEST DUP2 SLOAD DUP2 MSTORE SWAP1 PUSH1 0x1 ADD SWAP1 PUSH1 0x20 ADD DUP1 DUP4 GT PUSH2 0x297 JUMPI DUP3 SWAP1 SUB PUSH1 0x1F AND DUP3 ADD SWAP2 JUMPDEST POP POP POP POP POP SWAP1 POP DUP4 JUMP JUMPDEST PUSH1 0x2 PUSH1 0x20 MSTORE DUP2 PUSH1 0x0 MSTORE PUSH1 0x40 PUSH1 0x0 KECCAK256 PUSH1 0x20 MSTORE DUP1 PUSH1 0x0 MSTORE PUSH1 0x40 PUSH1 0x0 KECCAK256 PUSH1 0x0 SWAP2 POP SWAP2 POP SWAP1 SLOAD SWAP1 PUSH2 0x100 EXP SWAP1 DIV PUSH1 0xFF AND DUP2 JUMP JUMPDEST PUSH1 0x0 PUSH1 0x2 PUSH1 0x0 CALLER PUSH20 0xFFFFFFFFFFFFFFFFFFFFFFFFFFFFFFFFFFFFFFFF AND PUSH20 0xFFFFFFFFFFFFFFFFFFFFFFFFFFFFFFFFFFFFFFFF AND DUP2 MSTORE PUSH1 0x20 ADD SWAP1 DUP2 MSTORE PUSH1 0x20 ADD PUSH1 0x0 KECCAK256 PUSH1 0x0 DUP4 PUSH20 0xFFFFFFFFFFFFFFFFFFFFFFFFFFFFFFFFFFFFFFFF AND PUSH20 0xFFFFFFFFFFFFFFFFFFFFFFFFFFFFFFFFFFFFFFFF AND DUP2 MSTORE PUSH1 0x20 ADD SWAP1 DUP2 MSTORE PUSH1 0x20 ADD PUSH1 0x0 KECCAK256 PUSH1 0x0 PUSH2 0x100 EXP DUP2 SLOAD DUP2 PUSH1 0xFF MUL NOT AND SWAP1 DUP4 ISZERO ISZERO MUL OR SWAP1 SSTORE POP POP JUMP JUMPDEST PUSH1 0x1 PUSH1 0x2 PUSH1 0x0 CALLER PUSH20 0xFFFFFFFFFFFFFFFFFFFFFFFFFFFFFFFFFFFFFFFF AND PUSH20 0xFFFFFFFFFFFFFFFFFFFFFFFFFFFFFFFFFFFFFFFF AND DUP2 MSTORE PUSH1 0x20 ADD SWAP1 DUP2 MSTORE PUSH1 0x20 ADD PUSH1 0x0 KECCAK256 PUSH1 0x0 DUP4 PUSH20 0xFFFFFFFFFFFFFFFFFFFFFFFFFFFFFFFFFFFFFFFF AND PUSH20 0xFFFFFFFFFFFFFFFFFFFFFFFFFFFFFFFFFFFFFFFF AND DUP2 MSTORE PUSH1 0x20 ADD SWAP1 DUP2 MSTORE PUSH1 0x20 ADD PUSH1 0x0 KECCAK256 PUSH1 0x0 PUSH2 0x100 EXP DUP2 SLOAD DUP2 PUSH1 0xFF MUL NOT AND SWAP1 DUP4 ISZERO ISZERO MUL OR SWAP1 SSTORE POP POP JUMP JUMPDEST PUSH1 0x2 PUSH1 0x0 DUP4 PUSH20 0xFFFFFFFFFFFFFFFFFFFFFFFFFFFFFFFFFFFFFFFF AND PUSH20 0xFFFFFFFFFFFFFFFFFFFFFFFFFFFFFFFFFFFFFFFF AND DUP2 MSTORE PUSH1 0x20 ADD SWAP1 DUP2 MSTORE PUSH1 0x20 ADD PUSH1 0x0 KECCAK256 PUSH1 0x0 CALLER PUSH20 0xFFFFFFFFFFFFFFFFFFFFFFFFFFFFFFFFFFFFFFFF AND PUSH20 0xFFFFFFFFFFFFFFFFFFFFFFFFFFFFFFFFFFFFFFFF AND DUP2 MSTORE PUSH1 0x20 ADD SWAP1 DUP2 MSTORE PUSH1 0x20 ADD PUSH1 0x0 KECCAK256 PUSH1 0x0 SWAP1 SLOAD SWAP1 PUSH2 0x100 EXP SWAP1 DIV PUSH1 0xFF AND PUSH2 0x4E6 JUMPI PUSH1 0x40 MLOAD PUSH32 0x8C379A000000000000000000000000000000000000000000000000000000000 DUP2 MSTORE PUSH1 0x4 ADD PUSH2 0x4DD SWAP1 PUSH2 0xF7E JUMP JUMPDEST PUSH1 0x40 MLOAD DUP1 SWAP2 SUB SWAP1 REVERT JUMPDEST PUSH1 0x1 PUSH1 0x0 DUP4 PUSH20 0xFFFFFFFFFFFFFFFFFFFFFFFFFFFFFFFFFFFFFFFF AND PUSH20 0xFFFFFFFFFFFFFFFFFFFFFFFFFFFFFFFFFFFFFFFF AND DUP2 MSTORE PUSH1 0x20 ADD SWAP1 DUP2 MSTORE PUSH1 0x20 ADD PUSH1 0x0 KECCAK256 PUSH1 0x40 MLOAD DUP1 PUSH1 0x40 ADD PUSH1 0x40 MSTORE DUP1 DUP4 DUP2 MSTORE PUSH1 0x20 ADD TIMESTAMP DUP2 MSTORE POP SWAP1 DUP1 PUSH1 0x1 DUP2 SLOAD ADD DUP1 DUP3 SSTORE DUP1 SWAP2 POP POP PUSH1 0x1 SWAP1 SUB SWAP1 PUSH1 0x0 MSTORE PUSH1 0x20 PUSH1 0x0 KECCAK256 SWAP1 PUSH1 0x2 MUL ADD PUSH1 0x0 SWAP1 SWAP2 SWAP1 SWAP2 SWAP1 SWAP2 POP PUSH1 0x0 DUP3 ADD MLOAD DUP2 PUSH1 0x0 ADD SWAP1 DUP1 MLOAD SWAP1 PUSH1 0x20 ADD SWAP1 PUSH2 0x57F SWAP3 SWAP2 SWAP1 PUSH2 0x869 JUMP JUMPDEST POP PUSH1 0x20 DUP3 ADD MLOAD DUP2 PUSH1 0x1 ADD SSTORE POP POP POP POP JUMP JUMPDEST PUSH1 0x60 DUP2 PUSH20 0xFFFFFFFFFFFFFFFFFFFFFFFFFFFFFFFFFFFFFFFF AND CALLER PUSH20 0xFFFFFFFFFFFFFFFFFFFFFFFFFFFFFFFFFFFFFFFF AND EQ DUP1 PUSH2 0x652 JUMPI POP PUSH1 0x2 PUSH1 0x0 DUP4 PUSH20 0xFFFFFFFFFFFFFFFFFFFFFFFFFFFFFFFFFFFFFFFF AND PUSH20 0xFFFFFFFFFFFFFFFFFFFFFFFFFFFFFFFFFFFFFFFF AND DUP2 MSTORE PUSH1 0x20 ADD SWAP1 DUP2 MSTORE PUSH1 0x20 ADD PUSH1 0x0 KECCAK256 PUSH1 0x0 CALLER PUSH20 0xFFFFFFFFFFFFFFFFFFFFFFFFFFFFFFFFFFFFFFFF AND PUSH20 0xFFFFFFFFFFFFFFFFFFFFFFFFFFFFFFFFFFFFFFFF AND DUP2 MSTORE PUSH1 0x20 ADD SWAP1 DUP2 MSTORE PUSH1 0x20 ADD PUSH1 0x0 KECCAK256 PUSH1 0x0 SWAP1 SLOAD SWAP1 PUSH2 0x100 EXP SWAP1 DIV PUSH1 0xFF AND JUMPDEST PUSH2 0x691 JUMPI PUSH1 0x40 MLOAD PUSH32 0x8C379A000000000000000000000000000000000000000000000000000000000 DUP2 MSTORE PUSH1 0x4 ADD PUSH2 0x688 SWAP1 PUSH2 0x1010 JUMP JUMPDEST PUSH1 0x40 MLOAD DUP1 SWAP2 SUB SWAP1 REVERT JUMPDEST PUSH1 0x1 PUSH1 0x0 DUP4 PUSH20 0xFFFFFFFFFFFFFFFFFFFFFFFFFFFFFFFFFFFFFFFF AND PUSH20 0xFFFFFFFFFFFFFFFFFFFFFFFFFFFFFFFFFFFFFFFF AND DUP2 MSTORE PUSH1 0x20 ADD SWAP1 DUP2 MSTORE PUSH1 0x20 ADD PUSH1 0x0 KECCAK256 DUP1 SLOAD DUP1 PUSH1 0x20 MUL PUSH1 0x20 ADD PUSH1 0x40 MLOAD SWAP1 DUP2 ADD PUSH1 0x40 MSTORE DUP1 SWAP3 SWAP2 SWAP1 DUP2 DUP2 MSTORE PUSH1 0x20 ADD PUSH1 0x0 SWAP1 JUMPDEST DUP3 DUP3 LT ISZERO PUSH2 0x7BE JUMPI DUP4 DUP3 SWAP1 PUSH1 0x0 MSTORE PUSH1 0x20 PUSH1 0x0 KECCAK256 SWAP1 PUSH1 0x2 MUL ADD PUSH1 0x40 MLOAD DUP1 PUSH1 0x40 ADD PUSH1 0x40 MSTORE SWAP1 DUP2 PUSH1 0x0 DUP3 ADD DUP1 SLOAD PUSH2 0x723 SWAP1 PUSH2 0xEDA JUMP JUMPDEST DUP1 PUSH1 0x1F ADD PUSH1 0x20 DUP1 SWAP2 DIV MUL PUSH1 0x20 ADD PUSH1 0x40 MLOAD SWAP1 DUP2 ADD PUSH1 0x40 MSTORE DUP1 SWAP3 SWAP2 SWAP1 DUP2 DUP2 MSTORE PUSH1 0x20 ADD DUP3 DUP1 SLOAD PUSH2 0x74F SWAP1 PUSH2 0xEDA JUMP JUMPDEST DUP1 ISZERO PUSH2 0x79C JUMPI DUP1 PUSH1 0x1F LT PUSH2 0x771 JUMPI PUSH2 0x100 DUP1 DUP4 SLOAD DIV MUL DUP4 MSTORE SWAP2 PUSH1 0x20 ADD SWAP2 PUSH2 0x79C JUMP JUMPDEST DUP3 ADD SWAP2 SWAP1 PUSH1 0x0 MSTORE PUSH1 0x20 PUSH1 0x0 KECCAK256 SWAP1 JUMPDEST DUP2 SLOAD DUP2 MSTORE SWAP1 PUSH1 0x1 ADD SWAP1 PUSH1 0x20 ADD DUP1 DUP4 GT PUSH2 0x77F JUMPI DUP3 SWAP1 SUB PUSH1 0x1F AND DUP3 ADD SWAP2 JUMPDEST POP POP POP POP POP DUP2 MSTORE PUSH1 0x20 ADD PUSH1 0x1 DUP3 ADD SLOAD DUP2 MSTORE POP POP DUP2 MSTORE PUSH1 0x20 ADD SWAP1 PUSH1 0x1 ADD SWAP1 PUSH2 0x6F0 JUMP JUMPDEST POP POP POP POP SWAP1 POP SWAP2 SWAP1 POP JUMP JUMPDEST DUP2 PUSH1 0x0 DUP1 CALLER PUSH20 0xFFFFFFFFFFFFFFFFFFFFFFFFFFFFFFFFFFFFFFFF AND PUSH20 0xFFFFFFFFFFFFFFFFFFFFFFFFFFFFFFFFFFFFFFFF AND DUP2 MSTORE PUSH1 0x20 ADD SWAP1 DUP2 MSTORE PUSH1 0x20 ADD PUSH1 0x0 KECCAK256 PUSH1 0x0 ADD SWAP1 DUP1 MLOAD SWAP1 PUSH1 0x20 ADD SWAP1 PUSH2 0x81E SWAP3 SWAP2 SWAP1 PUSH2 0x869 JUMP JUMPDEST POP DUP1 PUSH1 0x0 DUP1 CALLER PUSH20 0xFFFFFFFFFFFFFFFFFFFFFFFFFFFFFFFFFFFFFFFF AND PUSH20 0xFFFFFFFFFFFFFFFFFFFFFFFFFFFFFFFFFFFFFFFF AND DUP2 MSTORE PUSH1 0x20 ADD SWAP1 DUP2 MSTORE PUSH1 0x20 ADD PUSH1 0x0 KECCAK256 PUSH1 0x1 ADD DUP2 SWAP1 SSTORE POP POP POP JUMP JUMPDEST DUP3 DUP1 SLOAD PUSH2 0x875 SWAP1 PUSH2 0xEDA JUMP JUMPDEST SWAP1 PUSH1 0x0 MSTORE PUSH1 0x20 PUSH1 0x0 KECCAK256 SWAP1 PUSH1 0x1F ADD PUSH1 0x20 SWAP1 DIV DUP2 ADD SWAP3 DUP3 PUSH2 0x897 JUMPI PUSH1 0x0 DUP6 SSTORE PUSH2 0x8DE JUMP JUMPDEST DUP3 PUSH1 0x1F LT PUSH2 0x8B0 JUMPI DUP1 MLOAD PUSH1 0xFF NOT AND DUP4 DUP1 ADD OR DUP6 SSTORE PUSH2 0x8DE JUMP JUMPDEST DUP3 DUP1 ADD PUSH1 0x1 ADD DUP6 SSTORE DUP3 ISZERO PUSH2 0x8DE JUMPI SWAP2 DUP3 ADD JUMPDEST DUP3 DUP2 GT ISZERO PUSH2 0x8DD JUMPI DUP3 MLOAD DUP3 SSTORE SWAP2 PUSH1 0x20 ADD SWAP2 SWAP1 PUSH1 0x1 ADD SWAP1 PUSH2 0x8C2 JUMP JUMPDEST JUMPDEST POP SWAP1 POP PUSH2 0x8EB SWAP2 SWAP1 PUSH2 0x8EF JUMP JUMPDEST POP SWAP1 JUMP JUMPDEST JUMPDEST DUP1 DUP3 GT ISZERO PUSH2 0x908 JUMPI PUSH1 0x0 DUP2 PUSH1 0x0 SWAP1 SSTORE POP PUSH1 0x1 ADD PUSH2 0x8F0 JUMP JUMPDEST POP SWAP1 JUMP JUMPDEST PUSH1 0x0 PUSH1 0x40 MLOAD SWAP1 POP SWAP1 JUMP JUMPDEST PUSH1 0x0 DUP1 REVERT JUMPDEST PUSH1 0x0 DUP1 REVERT JUMPDEST PUSH1 0x0 PUSH20 0xFFFFFFFFFFFFFFFFFFFFFFFFFFFFFFFFFFFFFFFF DUP3 AND SWAP1 POP SWAP2 SWAP1 POP JUMP JUMPDEST PUSH1 0x0 PUSH2 0x94B DUP3 PUSH2 0x920 JUMP JUMPDEST SWAP1 POP SWAP2 SWAP1 POP JUMP JUMPDEST PUSH2 0x95B DUP2 PUSH2 0x940 JUMP JUMPDEST DUP2 EQ PUSH2 0x966 JUMPI PUSH1 0x0 DUP1 REVERT JUMPDEST POP JUMP JUMPDEST PUSH1 0x0 DUP2 CALLDATALOAD SWAP1 POP PUSH2 0x978 DUP2 PUSH2 0x952 JUMP JUMPDEST SWAP3 SWAP2 POP POP JUMP JUMPDEST PUSH1 0x0 PUSH1 0x20 DUP3 DUP5 SUB SLT ISZERO PUSH2 0x994 JUMPI PUSH2 0x993 PUSH2 0x916 JUMP JUMPDEST JUMPDEST PUSH1 0x0 PUSH2 0x9A2 DUP5 DUP3 DUP6 ADD PUSH2 0x969 JUMP JUMPDEST SWAP2 POP POP SWAP3 SWAP2 POP POP JUMP JUMPDEST PUSH1 0x0 DUP2 MLOAD SWAP1 POP SWAP2 SWAP1 POP JUMP JUMPDEST PUSH1 0x0 DUP3 DUP3 MSTORE PUSH1 0x20 DUP3 ADD SWAP1 POP SWAP3 SWAP2 POP POP JUMP JUMPDEST PUSH1 0x0 JUMPDEST DUP4 DUP2 LT ISZERO PUSH2 0x9E5 JUMPI DUP1 DUP3 ADD MLOAD DUP2 DUP5 ADD MSTORE PUSH1 0x20 DUP2 ADD SWAP1 POP PUSH2 0x9CA JUMP JUMPDEST DUP4 DUP2 GT ISZERO PUSH2 0x9F4 JUMPI PUSH1 0x0 DUP5 DUP5 ADD MSTORE JUMPDEST POP POP POP POP JUMP JUMPDEST PUSH1 0x0 PUSH1 0x1F NOT PUSH1 0x1F DUP4 ADD AND SWAP1 POP SWAP2 SWAP1 POP JUMP JUMPDEST PUSH1 0x0 PUSH2 0xA16 DUP3 PUSH2 0x9AB JUMP JUMPDEST PUSH2 0xA20 DUP2 DUP6 PUSH2 0x9B6 JUMP JUMPDEST SWAP4 POP PUSH2 0xA30 DUP2 DUP6 PUSH1 0x20 DUP7 ADD PUSH2 0x9C7 JUMP JUMPDEST PUSH2 0xA39 DUP2 PUSH2 0x9FA JUMP JUMPDEST DUP5 ADD SWAP2 POP POP SWAP3 SWAP2 POP POP JUMP JUMPDEST PUSH1 0x0 DUP2 SWAP1 POP SWAP2 SWAP1 POP JUMP JUMPDEST PUSH2 0xA57 DUP2 PUSH2 0xA44 JUMP JUMPDEST DUP3 MSTORE POP POP JUMP JUMPDEST PUSH1 0x0 PUSH1 0x60 DUP3 ADD SWAP1 POP DUP2 DUP2 SUB PUSH1 0x0 DUP4 ADD MSTORE PUSH2 0xA77 DUP2 DUP7 PUSH2 0xA0B JUMP JUMPDEST SWAP1 POP PUSH2 0xA86 PUSH1 0x20 DUP4 ADD DUP6 PUSH2 0xA4E JUMP JUMPDEST DUP2 DUP2 SUB PUSH1 0x40 DUP4 ADD MSTORE PUSH2 0xA98 DUP2 DUP5 PUSH2 0xA0B JUMP JUMPDEST SWAP1 POP SWAP5 SWAP4 POP POP POP POP JUMP JUMPDEST PUSH1 0x0 DUP1 PUSH1 0x40 DUP4 DUP6 SUB SLT ISZERO PUSH2 0xAB9 JUMPI PUSH2 0xAB8 PUSH2 0x916 JUMP JUMPDEST JUMPDEST PUSH1 0x0 PUSH2 0xAC7 DUP6 DUP3 DUP7 ADD PUSH2 0x969 JUMP JUMPDEST SWAP3 POP POP PUSH1 0x20 PUSH2 0xAD8 DUP6 DUP3 DUP7 ADD PUSH2 0x969 JUMP JUMPDEST SWAP2 POP POP SWAP3 POP SWAP3 SWAP1 POP JUMP JUMPDEST PUSH1 0x0 DUP2 ISZERO ISZERO SWAP1 POP SWAP2 SWAP1 POP JUMP JUMPDEST PUSH2 0xAF7 DUP2 PUSH2 0xAE2 JUMP JUMPDEST DUP3 MSTORE POP POP JUMP JUMPDEST PUSH1 0x0 PUSH1 0x20 DUP3 ADD SWAP1 POP PUSH2 0xB12 PUSH1 0x0 DUP4 ADD DUP5 PUSH2 0xAEE JUMP JUMPDEST SWAP3 SWAP2 POP POP JUMP JUMPDEST PUSH1 0x0 DUP1 REVERT JUMPDEST PUSH1 0x0 DUP1 REVERT JUMPDEST PUSH32 0x4E487B7100000000000000000000000000000000000000000000000000000000 PUSH1 0x0 MSTORE PUSH1 0x41 PUSH1 0x4 MSTORE PUSH1 0x24 PUSH1 0x0 REVERT JUMPDEST PUSH2 0xB5A DUP3 PUSH2 0x9FA JUMP JUMPDEST DUP2 ADD DUP2 DUP2 LT PUSH8 0xFFFFFFFFFFFFFFFF DUP3 GT OR ISZERO PUSH2 0xB79 JUMPI PUSH2 0xB78 PUSH2 0xB22 JUMP JUMPDEST JUMPDEST DUP1 PUSH1 0x40 MSTORE POP POP POP JUMP JUMPDEST PUSH1 0x0 PUSH2 0xB8C PUSH2 0x90C JUMP JUMPDEST SWAP1 POP PUSH2 0xB98 DUP3 DUP3 PUSH2 0xB51 JUMP JUMPDEST SWAP2 SWAP1 POP JUMP JUMPDEST PUSH1 0x0 PUSH8 0xFFFFFFFFFFFFFFFF DUP3 GT ISZERO PUSH2 0xBB8 JUMPI PUSH2 0xBB7 PUSH2 0xB22 JUMP JUMPDEST JUMPDEST PUSH2 0xBC1 DUP3 PUSH2 0x9FA JUMP JUMPDEST SWAP1 POP PUSH1 0x20 DUP2 ADD SWAP1 POP SWAP2 SWAP1 POP JUMP JUMPDEST DUP3 DUP2 DUP4 CALLDATACOPY PUSH1 0x0 DUP4 DUP4 ADD MSTORE POP POP POP JUMP JUMPDEST PUSH1 0x0 PUSH2 0xBF0 PUSH2 0xBEB DUP5 PUSH2 0xB9D JUMP JUMPDEST PUSH2 0xB82 JUMP JUMPDEST SWAP1 POP DUP3 DUP2 MSTORE PUSH1 0x20 DUP2 ADD DUP5 DUP5 DUP5 ADD GT ISZERO PUSH2 0xC0C JUMPI PUSH2 0xC0B PUSH2 0xB1D JUMP JUMPDEST JUMPDEST PUSH2 0xC17 DUP5 DUP3 DUP6 PUSH2 0xBCE JUMP JUMPDEST POP SWAP4 SWAP3 POP POP POP JUMP JUMPDEST PUSH1 0x0 DUP3 PUSH1 0x1F DUP4 ADD SLT PUSH2 0xC34 JUMPI PUSH2 0xC33 PUSH2 0xB18 JUMP JUMPDEST JUMPDEST DUP2 CALLDATALOAD PUSH2 0xC44 DUP5 DUP3 PUSH1 0x20 DUP7 ADD PUSH2 0xBDD JUMP JUMPDEST SWAP2 POP POP SWAP3 SWAP2 POP POP JUMP JUMPDEST PUSH1 0x0 DUP1 PUSH1 0x40 DUP4 DUP6 SUB SLT ISZERO PUSH2 0xC64 JUMPI PUSH2 0xC63 PUSH2 0x916 JUMP JUMPDEST JUMPDEST PUSH1 0x0 PUSH2 0xC72 DUP6 DUP3 DUP7 ADD PUSH2 0x969 JUMP JUMPDEST SWAP3 POP POP PUSH1 0x20 DUP4 ADD CALLDATALOAD PUSH8 0xFFFFFFFFFFFFFFFF DUP2 GT ISZERO PUSH2 0xC93 JUMPI PUSH2 0xC92 PUSH2 0x91B JUMP JUMPDEST JUMPDEST PUSH2 0xC9F DUP6 DUP3 DUP7 ADD PUSH2 0xC1F JUMP JUMPDEST SWAP2 POP POP SWAP3 POP SWAP3 SWAP1 POP JUMP JUMPDEST PUSH1 0x0 DUP2 MLOAD SWAP1 POP SWAP2 SWAP1 POP JUMP JUMPDEST PUSH1 0x0 DUP3 DUP3 MSTORE PUSH1 0x20 DUP3 ADD SWAP1 POP SWAP3 SWAP2 POP POP JUMP JUMPDEST PUSH1 0x0 DUP2 SWAP1 POP PUSH1 0x20 DUP3 ADD SWAP1 POP SWAP2 SWAP1 POP JUMP JUMPDEST PUSH1 0x0 DUP3 DUP3 MSTORE PUSH1 0x20 DUP3 ADD SWAP1 POP SWAP3 SWAP2 POP POP JUMP JUMPDEST PUSH1 0x0 PUSH2 0xCF1 DUP3 PUSH2 0x9AB JUMP JUMPDEST PUSH2 0xCFB DUP2 DUP6 PUSH2 0xCD5 JUMP JUMPDEST SWAP4 POP PUSH2 0xD0B DUP2 DUP6 PUSH1 0x20 DUP7 ADD PUSH2 0x9C7 JUMP JUMPDEST PUSH2 0xD14 DUP2 PUSH2 0x9FA JUMP JUMPDEST DUP5 ADD SWAP2 POP POP SWAP3 SWAP2 POP POP JUMP JUMPDEST PUSH2 0xD28 DUP2 PUSH2 0xA44 JUMP JUMPDEST DUP3 MSTORE POP POP JUMP JUMPDEST PUSH1 0x0 PUSH1 0x40 DUP4 ADD PUSH1 0x0 DUP4 ADD MLOAD DUP5 DUP3 SUB PUSH1 0x0 DUP7 ADD MSTORE PUSH2 0xD4B DUP3 DUP3 PUSH2 0xCE6 JUMP JUMPDEST SWAP2 POP POP PUSH1 0x20 DUP4 ADD MLOAD PUSH2 0xD60 PUSH1 0x20 DUP7 ADD DUP3 PUSH2 0xD1F JUMP JUMPDEST POP DUP1 SWAP2 POP POP SWAP3 SWAP2 POP POP JUMP JUMPDEST PUSH1 0x0 PUSH2 0xD77 DUP4 DUP4 PUSH2 0xD2E JUMP JUMPDEST SWAP1 POP SWAP3 SWAP2 POP POP JUMP JUMPDEST PUSH1 0x0 PUSH1 0x20 DUP3 ADD SWAP1 POP SWAP2 SWAP1 POP JUMP JUMPDEST PUSH1 0x0 PUSH2 0xD97 DUP3 PUSH2 0xCA9 JUMP JUMPDEST PUSH2 0xDA1 DUP2 DUP6 PUSH2 0xCB4 JUMP JUMPDEST SWAP4 POP DUP4 PUSH1 0x20 DUP3 MUL DUP6 ADD PUSH2 0xDB3 DUP6 PUSH2 0xCC5 JUMP JUMPDEST DUP1 PUSH1 0x0 JUMPDEST DUP6 DUP2 LT ISZERO PUSH2 0xDEF JUMPI DUP5 DUP5 SUB DUP10 MSTORE DUP2 MLOAD PUSH2 0xDD0 DUP6 DUP3 PUSH2 0xD6B JUMP JUMPDEST SWAP5 POP PUSH2 0xDDB DUP4 PUSH2 0xD7F JUMP JUMPDEST SWAP3 POP PUSH1 0x20 DUP11 ADD SWAP10 POP POP PUSH1 0x1 DUP2 ADD SWAP1 POP PUSH2 0xDB7 JUMP JUMPDEST POP DUP3 SWAP8 POP DUP8 SWAP6 POP POP POP POP POP POP SWAP3 SWAP2 POP POP JUMP JUMPDEST PUSH1 0x0 PUSH1 0x20 DUP3 ADD SWAP1 POP DUP2 DUP2 SUB PUSH1 0x0 DUP4 ADD MSTORE PUSH2 0xE1B DUP2 DUP5 PUSH2 0xD8C JUMP JUMPDEST SWAP1 POP SWAP3 SWAP2 POP POP JUMP JUMPDEST PUSH2 0xE2C DUP2 PUSH2 0xA44 JUMP JUMPDEST DUP2 EQ PUSH2 0xE37 JUMPI PUSH1 0x0 DUP1 REVERT JUMPDEST POP JUMP JUMPDEST PUSH1 0x0 DUP2 CALLDATALOAD SWAP1 POP PUSH2 0xE49 DUP2 PUSH2 0xE23 JUMP JUMPDEST SWAP3 SWAP2 POP POP JUMP JUMPDEST PUSH1 0x0 DUP1 PUSH1 0x40 DUP4 DUP6 SUB SLT ISZERO PUSH2 0xE66 JUMPI PUSH2 0xE65 PUSH2 0x916 JUMP JUMPDEST JUMPDEST PUSH1 0x0 DUP4 ADD CALLDATALOAD PUSH8 0xFFFFFFFFFFFFFFFF DUP2 GT ISZERO PUSH2 0xE84 JUMPI PUSH2 0xE83 PUSH2 0x91B JUMP JUMPDEST JUMPDEST PUSH2 0xE90 DUP6 DUP3 DUP7 ADD PUSH2 0xC1F JUMP JUMPDEST SWAP3 POP POP PUSH1 0x20 PUSH2 0xEA1 DUP6 DUP3 DUP7 ADD PUSH2 0xE3A JUMP JUMPDEST SWAP2 POP POP SWAP3 POP SWAP3 SWAP1 POP JUMP JUMPDEST PUSH32 0x4E487B7100000000000000000000000000000000000000000000000000000000 PUSH1 0x0 MSTORE PUSH1 0x22 PUSH1 0x4 MSTORE PUSH1 0x24 PUSH1 0x0 REVERT JUMPDEST PUSH1 0x0 PUSH1 0x2 DUP3 DIV SWAP1 POP PUSH1 0x1 DUP3 AND DUP1 PUSH2 0xEF2 JUMPI PUSH1 0x7F DUP3 AND SWAP2 POP JUMPDEST PUSH1 0x20 DUP3 LT DUP2 EQ ISZERO PUSH2 0xF06 JUMPI PUSH2 0xF05 PUSH2 0xEAB JUMP JUMPDEST JUMPDEST POP SWAP2 SWAP1 POP JUMP JUMPDEST PUSH32 0x4F6E6C7920617574686F72697A656420646F63746F72732063616E2061646420 PUSH1 0x0 DUP3 ADD MSTORE PUSH32 0x7265636F72647300000000000000000000000000000000000000000000000000 PUSH1 0x20 DUP3 ADD MSTORE POP JUMP JUMPDEST PUSH1 0x0 PUSH2 0xF68 PUSH1 0x27 DUP4 PUSH2 0x9B6 JUMP JUMPDEST SWAP2 POP PUSH2 0xF73 DUP3 PUSH2 0xF0C JUMP JUMPDEST PUSH1 0x40 DUP3 ADD SWAP1 POP SWAP2 SWAP1 POP JUMP JUMPDEST PUSH1 0x0 PUSH1 0x20 DUP3 ADD SWAP1 POP DUP2 DUP2 SUB PUSH1 0x0 DUP4 ADD MSTORE PUSH2 0xF97 DUP2 PUSH2 0xF5B JUMP JUMPDEST SWAP1 POP SWAP2 SWAP1 POP JUMP JUMPDEST PUSH32 0x4F6E6C792070617469656E74206F7220617574686F72697A656420646F63746F PUSH1 0x0 DUP3 ADD MSTORE PUSH32 0x72732063616E2076696577207265636F72647300000000000000000000000000 PUSH1 0x20 DUP3 ADD MSTORE POP JUMP JUMPDEST PUSH1 0x0 PUSH2 0xFFA PUSH1 0x33 DUP4 PUSH2 0x9B6 JUMP JUMPDEST SWAP2 POP PUSH2 0x1005 DUP3 PUSH2 0xF9E JUMP JUMPDEST PUSH1 0x40 DUP3 ADD SWAP1 POP SWAP2 SWAP1 POP JUMP JUMPDEST PUSH1 0x0 PUSH1 0x20 DUP3 ADD SWAP1 POP DUP2 DUP2 SUB PUSH1 0x0 DUP4 ADD MSTORE PUSH2 0x1029 DUP2 PUSH2 0xFED JUMP JUMPDEST SWAP1 POP SWAP2 SWAP1 POP JUMP INVALID LOG2 PUSH5 0x6970667358 0x22 SLT KECCAK256 0x29 0xFB SAR DUP5 0x2B 0xA7 PC EXTCODECOPY 0x2F 0xB8 0xE9 SWAP15 0xE8 0xD0 0xF9 0xB9 PUSH8 0x6AE3789A28158D3B SIGNEXTEND CREATE2 0x5C 0xED BYTE 0xC5 CREATE PUSH5 0x736F6C6343 STOP ADDMOD MULMOD STOP CALLER "
    },
    "gasEstimates": {
      "creation": {
        "codeDepositCost": "839600",
        "executionCost": "877",
        "totalCost": "840477"
      },
      "external": {
        "addPatient(string,uint256)": "infinite",
        "addRecord(address,string)": "infinite",
        "authorizeDoctor(address)": "24901",
        "authorizedDoctors(address,address)": "infinite",
        "getRecords(address)": "infinite",
        "patients(address)": "infinite",
        "revokeDoctorAuthorization(address)": "24946"
      }
    },
    "methodIdentifiers": {
      "addPatient(string,uint256)": "a5b7d984",
      "addRecord(address,string)": "66858ec8",
      "authorizeDoctor(address)": "58c9202c",
      "authorizedDoctors(address,address)": "1cd5c6e9",
      "getRecords(address)": "a0076e84",
      "patients(address)": "0869cfbc",
      "revokeDoctorAuthorization(address)": "2b95c5fa"
    }
  },
  "storageLayout": {
    "storage": [
      {
        "astId": 18,
        "contract": "PatientData.sol:PatientData",
        "label": "patients",
        "offset": 0,
        "slot": "0",
        "type": "t_mapping(t_address,t_struct(Patient)8_storage)"
      },
      {
        "astId": 24,
        "contract": "PatientData.sol:PatientData",
        "label": "records",
        "offset": 0,
        "slot": "1",
        "type": "t_mapping(t_address,t_array(t_struct(MedicalRecord)13_storage)dyn_storage)"
      },
      {
        "astId": 30,
        "contract": "PatientData.sol:PatientData",
        "label": "authorizedDoctors",
        "offset": 0,
        "slot": "2",
        "type": "t_mapping(t_address,t_mapping(t_address,t_bool))"
      }
    ],
    "types": {
      "t_address": {
        "encoding": "inplace",
        "label": "address",
        "numberOfBytes": "20"
      },
      "t_array(t_struct(MedicalRecord)13_storage)dyn_storage": {
        "base": "t_struct(MedicalRecord)13_storage",
        "encoding": "dynamic_array",
        "label": "struct PatientData.MedicalRecord[]",
        "numberOfBytes": "32"
      },
      "t_bool": {
        "encoding": "inplace",
        "label": "bool",
        "numberOfBytes": "1"
      },
      "t_mapping(t_address,t_array(t_struct(MedicalRecord)13_storage)dyn_storage)": {
        "encoding": "mapping",
        "key": "t_address",
        "label": "mapping(address => struct PatientData.MedicalRecord[])",
        "numberOfBytes": "32",
        "value": "t_array(t_struct(MedicalRecord)13_storage)dyn_storage"
      },
      "t_mapping(t_address,t_bool)": {
        "encoding": "mapping",
        "key": "t_address",
        "label": "mapping(address => bool)",
        "numberOfBytes": "32",
        "value": "t_bool"
      },
      "t_mapping(t_address,t_mapping(t_address,t_bool))": {
        "encoding": "mapping",
        "key": "t_address",
        "label": "mapping(address => mapping(address => bool))",
        "numberOfBytes": "32",
        "value": "t_mapping(t_address,t_bool)"
      },
      "t_mapping(t_address,t_struct(Patient)8_storage)": {
        "encoding": "mapping",
        "key": "t_address",
        "label": "mapping(address => struct PatientData.Patient)",
        "numberOfBytes": "32",
        "value": "t_struct(Patient)8_storage"
      },
      "t_string_storage": {
        "encoding": "bytes",
        "label": "string",
        "numberOfBytes": "32"
      },
      "t_struct(MedicalRecord)13_storage": {
        "encoding": "inplace",
        "label": "struct PatientData.MedicalRecord",
        "members": [
          {
            "astId": 10,
            "contract": "PatientData.sol:PatientData",
            "label": "IPFS_Hash",
            "offset": 0,
            "slot": "0",
            "type": "t_string_storage"
          },
          {
            "astId": 12,
            "contract": "PatientData.sol:PatientData",
            "label": "date",
            "offset": 0,
            "slot": "1",
            "type": "t_uint256"
          }
        ],
        "numberOfBytes": "64"
      },
      "t_struct(Patient)8_storage": {
        "encoding": "inplace",
        "label": "struct PatientData.Patient",
        "members": [
          {
            "astId": 3,
            "contract": "PatientData.sol:PatientData",
            "label": "name",
            "offset": 0,
            "slot": "0",
            "type": "t_string_storage"
          },
          {
            "astId": 5,
            "contract": "PatientData.sol:PatientData",
            "label": "age",
            "offset": 0,
            "slot": "1",
            "type": "t_uint256"
          },
          {
            "astId": 7,
            "contract": "PatientData.sol:PatientData",
            "label": "ailment",
            "offset": 0,
            "slot": "2",
            "type": "t_string_storage"
          }
        ],
        "numberOfBytes": "96"
      },
      "t_uint256": {
        "encoding": "inplace",
        "label": "uint256",
        "numberOfBytes": "32"
      }
    }
  },
  "userdoc": {
    "kind": "user",
    "methods": {},
    "version": 1
  }
}